{
  "contractName": "Config",
  "abi": [
    {
      "anonymous": false,
      "inputs": [
        {
          "indexed": false,
          "internalType": "uint8",
          "name": "version",
          "type": "uint8"
        }
      ],
      "name": "Initialized",
      "type": "event"
    },
    {
      "anonymous": false,
      "inputs": [
        {
          "indexed": true,
          "internalType": "address",
          "name": "previousOwner",
          "type": "address"
        },
        {
          "indexed": true,
          "internalType": "address",
          "name": "newOwner",
          "type": "address"
        }
      ],
      "name": "OwnershipTransferred",
      "type": "event"
    },
    {
      "inputs": [],
      "name": "owner",
      "outputs": [
        {
          "internalType": "address",
          "name": "",
          "type": "address"
        }
      ],
      "stateMutability": "view",
      "type": "function"
    },
    {
      "inputs": [],
      "name": "renounceOwnership",
      "outputs": [],
      "stateMutability": "nonpayable",
      "type": "function"
    },
    {
      "inputs": [
        {
          "internalType": "address",
          "name": "newOwner",
          "type": "address"
        }
      ],
      "name": "transferOwnership",
      "outputs": [],
      "stateMutability": "nonpayable",
      "type": "function"
    },
    {
      "inputs": [],
      "name": "initialize",
      "outputs": [],
      "stateMutability": "nonpayable",
      "type": "function"
    },
    {
      "inputs": [
        {
          "internalType": "uint256",
          "name": "_allocationProportion",
          "type": "uint256"
        },
        {
          "internalType": "address",
          "name": "_graphStakingAddress",
          "type": "address"
        },
        {
          "internalType": "address",
          "name": "_grtTokenAddress",
          "type": "address"
        },
        {
          "internalType": "uint256",
          "name": "_thawingTime",
          "type": "uint256"
        }
      ],
      "name": "setConfigInfo",
      "outputs": [],
      "stateMutability": "nonpayable",
      "type": "function"
    },
    {
      "inputs": [],
      "name": "getGraphStakingAddress",
      "outputs": [
        {
          "internalType": "address",
          "name": "",
          "type": "address"
        }
      ],
      "stateMutability": "view",
      "type": "function"
    },
    {
      "inputs": [],
      "name": "getGrtTokenAddress",
      "outputs": [
        {
          "internalType": "address",
          "name": "",
          "type": "address"
        }
      ],
      "stateMutability": "view",
      "type": "function"
    },
    {
      "inputs": [],
      "name": "getAllocationProportion",
      "outputs": [
        {
          "internalType": "uint256",
          "name": "",
          "type": "uint256"
        }
      ],
      "stateMutability": "view",
      "type": "function"
    },
    {
      "inputs": [],
      "name": "getThawingTime",
      "outputs": [
        {
          "internalType": "uint256",
          "name": "",
          "type": "uint256"
        }
      ],
      "stateMutability": "view",
      "type": "function"
    }
  ],
  "bytecode": "0x608060405234801561001057600080fd5b50610599806100206000396000f3fe608060405234801561001057600080fd5b50600436106100935760003560e01c80634c94f61a116100665780634c94f61a146100f1578063715018a6146101025780638129fc1c1461010a5780638da5cb5b14610112578063f2fde38b1461012357600080fd5b806316522e2d1461009857806316db9d84146100af5780631d244359146100c45780632053065f146100cc575b600080fd5b6065545b6040519081526020015b60405180910390f35b6100c26100bd36600461042f565b610136565b005b60685461009c565b6067546001600160a01b03165b6040516001600160a01b0390911681526020016100a6565b6066546001600160a01b03166100d9565b6100c26101a0565b6100c26101d6565b6033546001600160a01b03166100d9565b6100c2610131366004610473565b61024b565b6033546001600160a01b031633146101695760405162461bcd60e51b815260040161016090610495565b60405180910390fd5b606593909355606680546001600160a01b039384166001600160a01b03199182161790915560678054929093169116179055606855565b6033546001600160a01b031633146101ca5760405162461bcd60e51b815260040161016090610495565b6101d460006102df565b565b60006101e26001610331565b905080156101fa576000805461ff0019166101001790555b6102026103be565b8015610248576000805461ff0019169055604051600181527f7f26b83ff96e1f2b6a682f133852f6798a09c465da95921460cefb38474024989060200160405180910390a15b50565b6033546001600160a01b031633146102755760405162461bcd60e51b815260040161016090610495565b6001600160a01b0381166102da5760405162461bcd60e51b815260206004820152602660248201527f4f776e61626c653a206e6577206f776e657220697320746865207a65726f206160448201526564647265737360d01b6064820152608401610160565b610248815b603380546001600160a01b038381166001600160a01b0319831681179093556040519116919082907f8be0079c531659141344cd1fd0a4f28419497f9722a3daafe3b4186f6b6457e090600090a35050565b60008054610100900460ff1615610378578160ff1660011480156103545750303b155b6103705760405162461bcd60e51b8152600401610160906104ca565b506000919050565b60005460ff80841691161061039f5760405162461bcd60e51b8152600401610160906104ca565b506000805460ff191660ff92909216919091179055600190565b919050565b600054610100900460ff166103e55760405162461bcd60e51b815260040161016090610518565b6101d4600054610100900460ff1661040f5760405162461bcd60e51b815260040161016090610518565b6101d4336102df565b80356001600160a01b03811681146103b957600080fd5b6000806000806080858703121561044557600080fd5b8435935061045560208601610418565b925061046360408601610418565b9396929550929360600135925050565b60006020828403121561048557600080fd5b61048e82610418565b9392505050565b6020808252818101527f4f776e61626c653a2063616c6c6572206973206e6f7420746865206f776e6572604082015260600190565b6020808252602e908201527f496e697469616c697a61626c653a20636f6e747261637420697320616c72656160408201526d191e481a5b9a5d1a585b1a5e995960921b606082015260800190565b6020808252602b908201527f496e697469616c697a61626c653a20636f6e7472616374206973206e6f74206960408201526a6e697469616c697a696e6760a81b60608201526080019056fea2646970667358221220152fcf627fc6e7a2db623a98b70b411415a9de3f504eb62835cc86cdd24df84864736f6c634300080f0033",
  "immutableReferences": {},
  "source": "// SPDX-License-Identifier: MIT\npragma solidity ^0.8.0;\n\nimport \"@openzeppelin/contracts-upgradeable/proxy/utils/Initializable.sol\";\nimport \"@openzeppelin/contracts-upgradeable/access/OwnableUpgradeable.sol\";\n\ncontract Config is Initializable,OwnableUpgradeable {\n\n    //Distribution proportion\n    uint allocationProportion;\n\n    //graph staking contract address\n    address graphStakingAddress;\n\n    //GRT token contract address\n    address grtTokenAddress;\n\n    //Retrieve the thawing time of hammer coin\n    uint256 thawingTime;\n\n    function initialize() public initializer {\n        __Ownable_init();\n    }\n\n    //Set configuration information\n    function setConfigInfo(uint256 _allocationProportion, address _graphStakingAddress, address _grtTokenAddress, uint256 _thawingTime) public onlyOwner {\n        allocationProportion = _allocationProportion;\n        graphStakingAddress = _graphStakingAddress;\n        grtTokenAddress = _grtTokenAddress;\n        thawingTime = _thawingTime;\n    }\n\n    //get graph staking address\n    function getGraphStakingAddress() public view returns(address) {\n        return graphStakingAddress;\n    }\n\n    function getGrtTokenAddress() public view returns(address) {\n        return grtTokenAddress;\n    }\n\n    function getAllocationProportion() public view returns(uint) {\n        return allocationProportion;\n    }\n\n    function getThawingTime() public view returns(uint256) {\n        return thawingTime;\n    }\n}\n",
  "sourcePath": "/home/sunjianguo/GolandProjects/hamster-contracts/contracts/config/Config.sol",
  "compiler": {
    "name": "solc",
    "version": "0.8.15+commit.e14f2714.Emscripten.clang"
  },
  "schemaVersion": "3.4.8",
  "updatedAt": "2022-07-29T06:40:11.341Z",
  "devdoc": {
    "kind": "dev",
    "methods": {
      "owner()": {
        "details": "Returns the address of the current owner."
      },
      "renounceOwnership()": {
        "details": "Leaves the contract without owner. It will not be possible to call `onlyOwner` functions anymore. Can only be called by the current owner. NOTE: Renouncing ownership will leave the contract without an owner, thereby removing any functionality that is only available to the owner."
      },
      "transferOwnership(address)": {
        "details": "Transfers ownership of the contract to a new account (`newOwner`). Can only be called by the current owner."
      }
    },
    "version": 1
  },
  "userdoc": {
    "kind": "user",
    "methods": {},
    "version": 1
  }
}