{
  "contractName": "Config",
  "abi": [
    {
      "anonymous": false,
      "inputs": [
        {
          "indexed": false,
          "internalType": "uint8",
          "name": "version",
          "type": "uint8"
        }
      ],
      "name": "Initialized",
      "type": "event"
    },
    {
      "anonymous": false,
      "inputs": [
        {
          "indexed": true,
          "internalType": "address",
          "name": "previousOwner",
          "type": "address"
        },
        {
          "indexed": true,
          "internalType": "address",
          "name": "newOwner",
          "type": "address"
        }
      ],
      "name": "OwnershipTransferred",
      "type": "event"
    },
    {
      "inputs": [],
      "name": "owner",
      "outputs": [
        {
          "internalType": "address",
          "name": "",
          "type": "address"
        }
      ],
      "stateMutability": "view",
      "type": "function",
      "constant": true
    },
    {
      "inputs": [],
      "name": "renounceOwnership",
      "outputs": [],
      "stateMutability": "nonpayable",
      "type": "function"
    },
    {
      "inputs": [
        {
          "internalType": "address",
          "name": "newOwner",
          "type": "address"
        }
      ],
      "name": "transferOwnership",
      "outputs": [],
      "stateMutability": "nonpayable",
      "type": "function"
    },
    {
      "inputs": [],
      "name": "initialize",
      "outputs": [],
      "stateMutability": "nonpayable",
      "type": "function"
    },
    {
      "inputs": [
        {
          "internalType": "uint256",
          "name": "_allocationProportion",
          "type": "uint256"
        },
        {
          "internalType": "address",
          "name": "_graphStakingAddress",
          "type": "address"
        },
        {
          "internalType": "address",
          "name": "_grtTokenAddress",
          "type": "address"
        },
        {
          "internalType": "uint256",
          "name": "_thawingTime",
          "type": "uint256"
        }
      ],
      "name": "setConfigInfo",
      "outputs": [],
      "stateMutability": "nonpayable",
      "type": "function"
    },
    {
      "inputs": [],
      "name": "getGraphStakingAddress",
      "outputs": [
        {
          "internalType": "address",
          "name": "",
          "type": "address"
        }
      ],
      "stateMutability": "view",
      "type": "function",
      "constant": true
    },
    {
      "inputs": [],
      "name": "getGrtTokenAddress",
      "outputs": [
        {
          "internalType": "address",
          "name": "",
          "type": "address"
        }
      ],
      "stateMutability": "view",
      "type": "function",
      "constant": true
    },
    {
      "inputs": [],
      "name": "getAllocationProportion",
      "outputs": [
        {
          "internalType": "uint256",
          "name": "",
          "type": "uint256"
        }
      ],
      "stateMutability": "view",
      "type": "function",
      "constant": true
    },
    {
      "inputs": [],
      "name": "getThawingTime",
      "outputs": [
        {
          "internalType": "uint256",
          "name": "",
          "type": "uint256"
        }
      ],
      "stateMutability": "view",
      "type": "function",
      "constant": true
    },
    {
      "inputs": [
        {
          "internalType": "uint256",
          "name": "_allocationProportion",
          "type": "uint256"
        }
      ],
      "name": "setAllocationProportion",
      "outputs": [],
      "stateMutability": "nonpayable",
      "type": "function"
    },
    {
      "inputs": [
        {
          "internalType": "uint256",
          "name": "_thawingTime",
          "type": "uint256"
        }
      ],
      "name": "setThawingTime",
      "outputs": [],
      "stateMutability": "nonpayable",
      "type": "function"
    }
  ],
  "bytecode": "0x608060405234801561001057600080fd5b5061064c806100206000396000f3fe608060405234801561001057600080fd5b50600436106100a95760003560e01c80634c94f61a116100715780634c94f61a1461011a578063715018a61461012b5780638129fc1c146101335780638da5cb5b1461013b578063ca0756ea1461014c578063f2fde38b1461015f57600080fd5b806315956ed6146100ae57806316522e2d146100c357806316db9d84146100da5780631d244359146100ed5780632053065f146100f5575b600080fd5b6100c16100bc3660046104b2565b610172565b005b6065545b6040519081526020015b60405180910390f35b6100c16100e83660046104e2565b6101aa565b6068546100c7565b6067546001600160a01b03165b6040516001600160a01b0390911681526020016100d1565b6066546001600160a01b0316610102565b6100c161020b565b6100c1610241565b6033546001600160a01b0316610102565b6100c161015a3660046104b2565b6102b6565b6100c161016d366004610526565b6102e5565b6033546001600160a01b031633146101a55760405162461bcd60e51b815260040161019c90610548565b60405180910390fd5b606555565b6033546001600160a01b031633146101d45760405162461bcd60e51b815260040161019c90610548565b606593909355606680546001600160a01b039384166001600160a01b03199182161790915560678054929093169116179055606855565b6033546001600160a01b031633146102355760405162461bcd60e51b815260040161019c90610548565b61023f6000610379565b565b600061024d60016103cb565b90508015610265576000805461ff0019166101001790555b61026d610458565b80156102b3576000805461ff0019169055604051600181527f7f26b83ff96e1f2b6a682f133852f6798a09c465da95921460cefb38474024989060200160405180910390a15b50565b6033546001600160a01b031633146102e05760405162461bcd60e51b815260040161019c90610548565b606855565b6033546001600160a01b0316331461030f5760405162461bcd60e51b815260040161019c90610548565b6001600160a01b0381166103745760405162461bcd60e51b815260206004820152602660248201527f4f776e61626c653a206e6577206f776e657220697320746865207a65726f206160448201526564647265737360d01b606482015260840161019c565b6102b3815b603380546001600160a01b038381166001600160a01b0319831681179093556040519116919082907f8be0079c531659141344cd1fd0a4f28419497f9722a3daafe3b4186f6b6457e090600090a35050565b60008054610100900460ff1615610412578160ff1660011480156103ee5750303b155b61040a5760405162461bcd60e51b815260040161019c9061057d565b506000919050565b60005460ff8084169116106104395760405162461bcd60e51b815260040161019c9061057d565b506000805460ff191660ff92909216919091179055600190565b919050565b600054610100900460ff1661047f5760405162461bcd60e51b815260040161019c906105cb565b61023f600054610100900460ff166104a95760405162461bcd60e51b815260040161019c906105cb565b61023f33610379565b6000602082840312156104c457600080fd5b5035919050565b80356001600160a01b038116811461045357600080fd5b600080600080608085870312156104f857600080fd5b84359350610508602086016104cb565b9250610516604086016104cb565b9396929550929360600135925050565b60006020828403121561053857600080fd5b610541826104cb565b9392505050565b6020808252818101527f4f776e61626c653a2063616c6c6572206973206e6f7420746865206f776e6572604082015260600190565b6020808252602e908201527f496e697469616c697a61626c653a20636f6e747261637420697320616c72656160408201526d191e481a5b9a5d1a585b1a5e995960921b606082015260800190565b6020808252602b908201527f496e697469616c697a61626c653a20636f6e7472616374206973206e6f74206960408201526a6e697469616c697a696e6760a81b60608201526080019056fea2646970667358221220d26f35d0457cbaf6bd91805a1b2e670f59303ca1d79a6518d70f92ea0a87869c64736f6c63430008100033",
  "immutableReferences": {},
  "source": "// SPDX-License-Identifier: MIT\npragma solidity ^0.8.0;\n\nimport \"@openzeppelin/contracts-upgradeable/proxy/utils/Initializable.sol\";\nimport \"@openzeppelin/contracts-upgradeable/access/OwnableUpgradeable.sol\";\n\ncontract Config is Initializable,OwnableUpgradeable {\n    //Distribution proportion\n    uint allocationProportion;\n\n    //graph staking contract address\n    address graphStakingAddress;\n\n    //GRT token contract address\n    address grtTokenAddress;\n\n    //Retrieve the thawing time of hammer coin\n    uint256 thawingTime;\n\n    function initialize() public initializer {\n        __Ownable_init();\n    }\n\n    //Set configuration information\n    function setConfigInfo(uint256 _allocationProportion, address _graphStakingAddress, address _grtTokenAddress, uint256 _thawingTime) public onlyOwner {\n        allocationProportion = _allocationProportion;\n        graphStakingAddress = _graphStakingAddress;\n        grtTokenAddress = _grtTokenAddress;\n        thawingTime = _thawingTime;\n    }\n\n    //get graph staking address\n    function getGraphStakingAddress() public view returns(address) {\n        return graphStakingAddress;\n    }\n\n    function getGrtTokenAddress() public view returns(address) {\n        return grtTokenAddress;\n    }\n\n    function getAllocationProportion() public view returns(uint) {\n        return allocationProportion;\n    }\n\n    function getThawingTime() public view returns(uint256) {\n        return thawingTime;\n    }\n\n    function setAllocationProportion(uint256 _allocationProportion) public onlyOwner {\n        allocationProportion = _allocationProportion;\n    }\n\n    function setThawingTime(uint256 _thawingTime) public onlyOwner {\n        thawingTime = _thawingTime;\n    }\n}\n",
  "sourcePath": "/home/sunjianguo/GolandProjects/hamster-contracts/contracts/config/Config.sol",
  "compiler": {
    "name": "solc",
    "version": "0.8.16+commit.07a7930e.Emscripten.clang"
  },
  "schemaVersion": "3.4.8",
  "updatedAt": "2022-08-12T09:47:51.855Z",
  "networkType": "ethereum",
  "devdoc": {
    "kind": "dev",
    "methods": {
      "owner()": {
        "details": "Returns the address of the current owner."
      },
      "renounceOwnership()": {
        "details": "Leaves the contract without owner. It will not be possible to call `onlyOwner` functions anymore. Can only be called by the current owner. NOTE: Renouncing ownership will leave the contract without an owner, thereby removing any functionality that is only available to the owner."
      },
      "transferOwnership(address)": {
        "details": "Transfers ownership of the contract to a new account (`newOwner`). Can only be called by the current owner."
      }
    },
    "version": 1
  },
  "userdoc": {
    "kind": "user",
    "methods": {},
    "version": 1
  }
}