{
  "contractName": "HamsterPool",
  "abi": [
    {
      "anonymous": false,
      "inputs": [
        {
          "indexed": false,
          "internalType": "uint8",
          "name": "version",
          "type": "uint8"
        }
      ],
      "name": "Initialized",
      "type": "event"
    },
    {
      "inputs": [
        {
          "internalType": "address",
          "name": "_configAddress",
          "type": "address"
        },
        {
          "internalType": "address",
          "name": "_hamsterCoinAddress",
          "type": "address"
        }
      ],
      "name": "initialize",
      "outputs": [],
      "stateMutability": "nonpayable",
      "type": "function"
    },
    {
      "inputs": [
        {
          "internalType": "address",
          "name": "_account",
          "type": "address"
        },
        {
          "internalType": "uint256",
          "name": "_tokens",
          "type": "uint256"
        }
      ],
      "name": "staking",
      "outputs": [],
      "stateMutability": "nonpayable",
      "type": "function"
    },
    {
      "inputs": [
        {
          "internalType": "address",
          "name": "_proxyStakingContract",
          "type": "address"
        },
        {
          "internalType": "uint256",
          "name": "_tokens",
          "type": "uint256"
        }
      ],
      "name": "distributionGrt",
      "outputs": [],
      "stateMutability": "nonpayable",
      "type": "function"
    },
    {
      "inputs": [
        {
          "internalType": "address",
          "name": "_account",
          "type": "address"
        }
      ],
      "name": "withdrawGrt",
      "outputs": [],
      "stateMutability": "nonpayable",
      "type": "function"
    },
    {
      "inputs": [
        {
          "internalType": "address",
          "name": "_account",
          "type": "address"
        },
        {
          "internalType": "uint256",
          "name": "_tokens",
          "type": "uint256"
        }
      ],
      "name": "withdraw",
      "outputs": [],
      "stateMutability": "nonpayable",
      "type": "function"
    },
    {
      "inputs": [],
      "name": "hamsterBalance",
      "outputs": [
        {
          "internalType": "uint256",
          "name": "",
          "type": "uint256"
        }
      ],
      "stateMutability": "view",
      "type": "function"
    },
    {
      "inputs": [],
      "name": "grtBalance",
      "outputs": [
        {
          "internalType": "uint256",
          "name": "",
          "type": "uint256"
        }
      ],
      "stateMutability": "view",
      "type": "function"
    },
    {
      "inputs": [],
      "name": "getPoolAddress",
      "outputs": [
        {
          "internalType": "address",
          "name": "",
          "type": "address"
        }
      ],
      "stateMutability": "view",
      "type": "function"
    },
    {
      "inputs": [
        {
          "internalType": "address",
          "name": "_account",
          "type": "address"
        }
      ],
      "name": "getAccountGrt",
      "outputs": [
        {
          "internalType": "uint256",
          "name": "",
          "type": "uint256"
        }
      ],
      "stateMutability": "view",
      "type": "function"
    },
    {
      "inputs": [
        {
          "internalType": "address",
          "name": "_account",
          "type": "address"
        }
      ],
      "name": "getStakingBalance",
      "outputs": [
        {
          "internalType": "uint256",
          "name": "",
          "type": "uint256"
        }
      ],
      "stateMutability": "view",
      "type": "function"
    }
  ],
  "bytecode": "0x608060405234801561001057600080fd5b50611235806100206000396000f3fe608060405234801561001057600080fd5b506004361061009e5760003560e01c8063e3e90e7c11610066578063e3e90e7c14610143578063e9d9d8141461014b578063f3fef3a314610153578063f586c6d914610166578063ff4a36c71461017457600080fd5b8063485cc955146100a357806395dfea77146100b8578063b04ef9c2146100cb578063b89b0ea314610107578063e201bb3114610130575b600080fd5b6100b66100b1366004610fcd565b610187565b005b6100b66100c6366004611006565b610226565b6100f46100d9366004611032565b6001600160a01b031660009081526001602052604090205490565b6040519081526020015b60405180910390f35b6100f4610115366004611032565b6001600160a01b031660009081526005602052604090205490565b6100b661013e366004611032565b6104fc565b6100f4610754565b6100f461083f565b6100b6610161366004611006565b6108b1565b6040513081526020016100fe565b6100b6610182366004611006565b610ba9565b60006101936001610e2e565b905080156101ab576000805461ff0019166101001790555b600880546001600160a01b038086166001600160a01b03199283161790925560098054928516929091169190911790558015610221576000805461ff0019169055604051600181527f7f26b83ff96e1f2b6a682f133852f6798a09c465da95921460cefb38474024989060200160405180910390a15b505050565b6009546040516370a0823160e01b81526001600160a01b038481166004830152839216906370a0823190602401602060405180830381865afa158015610270573d6000803e3d6000fd5b505050506040513d601f19601f82011682018060405250810190610294919061104f565b10156102e75760405162461bcd60e51b815260206004820152601c60248201527f496e73756666696369656e74206163636f756e742062616c616e63650000000060448201526064015b60405180910390fd5b6009546040516323b872dd60e01b81526001600160a01b03848116600483015230602483015260448201849052909116906323b872dd906064016020604051808303816000875af1158015610340573d6000803e3d6000fd5b505050506040513d601f19601f820116820180604052508101906103649190611068565b6103a15760405162461bcd60e51b815260206004820152600e60248201526d506c65646765206661696c65642160901b60448201526064016102de565b6001600160a01b0382166000908152600160205260409020546103c59082906110a0565b6001600160a01b0383166000908152600160209081526040808320939093556004905220546103f59082906110a0565b6001600160a01b03831660009081526004602052604090205560035461041c9082906110a0565b60035560065461042d9082906110a0565b6006556000805b60075481101561048c57836001600160a01b03166007828154811061045b5761045b6110b8565b6000918252602090912001546001600160a01b03160361047a57600191505b80610484816110ce565b915050610434565b50806104de57600780546001810182556000919091527fa66cc928b5edb82af9bd49922954155ab7b0942694bea4ce44661d9a8736c6880180546001600160a01b0319166001600160a01b0385161790555b50506001600160a01b03166000908152600260205260409020439055565b6001600160a01b038116600090815260056020526040902054806105505760405162461bcd60e51b815260206004820152600b60248201526a5a65726f20696e636f6d6560a81b60448201526064016102de565b60085460408051632053065f60e01b815290516000926001600160a01b031691632053065f9160048083019260209291908290030181865afa15801561059a573d6000803e3d6000fd5b505050506040513d601f19601f820116820180604052508101906105be91906110e7565b6040516370a0823160e01b815230600482015290915082906001600160a01b038316906370a0823190602401602060405180830381865afa158015610607573d6000803e3d6000fd5b505050506040513d601f19601f8201168201806040525081019061062b919061104f565b10156106795760405162461bcd60e51b815260206004820152601e60248201527f496e73756666696369656e742066756e6420706f6f6c2062616c616e6365000060448201526064016102de565b60405163a9059cbb60e01b81526001600160a01b0384811660048301526024820184905282169063a9059cbb906044016020604051808303816000875af11580156106c8573d6000803e3d6000fd5b505050506040513d601f19601f820116820180604052508101906106ec9190611068565b6107385760405162461bcd60e51b815260206004820152601860248201527f4661696c656420746f20636f6c6c65637420696e636f6d65000000000000000060448201526064016102de565b50506001600160a01b0316600090815260056020526040812055565b600080600860009054906101000a90046001600160a01b03166001600160a01b0316632053065f6040518163ffffffff1660e01b8152600401602060405180830381865afa1580156107aa573d6000803e3d6000fd5b505050506040513d601f19601f820116820180604052508101906107ce91906110e7565b6040516370a0823160e01b81523060048201529091506001600160a01b038216906370a0823190602401602060405180830381865afa158015610815573d6000803e3d6000fd5b505050506040513d601f19601f82011682018060405250810190610839919061104f565b91505090565b6009546040516370a0823160e01b81523060048201526000916001600160a01b0316906370a0823190602401602060405180830381865afa158015610888573d6000803e3d6000fd5b505050506040513d601f19601f820116820180604052508101906108ac919061104f565b905090565b6001600160a01b038216600090815260016020526040902054806109215760405162461bcd60e51b815260206004820152602160248201527f4e6f20706c6564676520616d6f756e742063616e20626520636f6c6c656374656044820152601960fa1b60648201526084016102de565b818110156109885760405162461bcd60e51b815260206004820152602e60248201527f54686520726563656976656420616d6f756e742065786365656473207468652060448201526d1c1b195919d95908185b5bdd5b9d60921b60648201526084016102de565b6001600160a01b038084166000908152600260209081526040808320546008548251631d24435960e01b8152925191951692631d24435992600480820193918290030181865afa1580156109e0573d6000803e3d6000fd5b505050506040513d601f19601f82011682018060405250810190610a04919061104f565b905080610a118343611104565b11610a7c5760405162461bcd60e51b815260206004820152603560248201527f506c656467652063616e6e6f74206265207265747269657665642077697468696044820152741b881d1a1948199c99595e9a5b99c81c195c9a5bd9605a1b60648201526084016102de565b60095460405163a9059cbb60e01b81526001600160a01b038781166004830152602482018790529091169063a9059cbb906044016020604051808303816000875af1158015610acf573d6000803e3d6000fd5b505050506040513d601f19601f82011682018060405250810190610af39190611068565b610b325760405162461bcd60e51b815260206004820152601060248201526f7472616e73666572206661696c65642160801b60448201526064016102de565b828403610b64576001600160a01b03851660009081526001602090815260408083208390556002909152812055610ba2565b6001600160a01b038516600090815260016020526040902054610b88908590611104565b6001600160a01b0386166000908152600160205260409020555b5050505050565b60085460408051632053065f60e01b815290516000926001600160a01b031691632053065f9160048083019260209291908290030181865afa158015610bf3573d6000803e3d6000fd5b505050506040513d601f19601f82011682018060405250810190610c1791906110e7565b6040516323b872dd60e01b81526001600160a01b03858116600483015230602483015260448201859052919250908216906323b872dd906064016020604051808303816000875af1158015610c70573d6000803e3d6000fd5b505050506040513d601f19601f82011682018060405250810190610c949190611068565b610ce05760405162461bcd60e51b815260206004820152601960248201527f4661696c656420746f20616c6c6f6361746520696e636f6d650000000000000060448201526064016102de565b600754156102215760005b600754811015610e235760006004600060078481548110610d0e57610d0e6110b8565b60009182526020808320909101546001600160a01b03168352820192909252604001902054600654909150610d4d90610d478387610eb6565b90610f41565b6005600060078581548110610d6457610d646110b8565b60009182526020808320909101546001600160a01b03168352820192909252604001902054610d9391906110a0565b6005600060078581548110610daa57610daa6110b8565b60009182526020808320909101546001600160a01b0316835282019290925260400181209190915560078054600491839186908110610deb57610deb6110b8565b60009182526020808320909101546001600160a01b031683528201929092526040019020555080610e1b816110ce565b915050610ceb565b506000600655505050565b60008054610100900460ff1615610e75578160ff166001148015610e515750303b155b610e6d5760405162461bcd60e51b81526004016102de9061111b565b506000919050565b60005460ff808416911610610e9c5760405162461bcd60e51b81526004016102de9061111b565b506000805460ff191660ff92909216919091179055600190565b600082600003610ec857506000610f3b565b6000610ed48385611169565b905082610ee18583611188565b14610f385760405162461bcd60e51b815260206004820152602160248201527f536166654d6174683a206d756c7469706c69636174696f6e206f766572666c6f6044820152607760f81b60648201526084016102de565b90505b92915050565b6000610f3883836040518060400160405280601a81526020017f536166654d6174683a206469766973696f6e206279207a65726f00000000000081525060008183610f9f5760405162461bcd60e51b81526004016102de91906111aa565b506000610fac8486611188565b95945050505050565b6001600160a01b0381168114610fca57600080fd5b50565b60008060408385031215610fe057600080fd5b8235610feb81610fb5565b91506020830135610ffb81610fb5565b809150509250929050565b6000806040838503121561101957600080fd5b823561102481610fb5565b946020939093013593505050565b60006020828403121561104457600080fd5b8135610f3881610fb5565b60006020828403121561106157600080fd5b5051919050565b60006020828403121561107a57600080fd5b81518015158114610f3857600080fd5b634e487b7160e01b600052601160045260246000fd5b600082198211156110b3576110b361108a565b500190565b634e487b7160e01b600052603260045260246000fd5b6000600182016110e0576110e061108a565b5060010190565b6000602082840312156110f957600080fd5b8151610f3881610fb5565b6000828210156111165761111661108a565b500390565b6020808252602e908201527f496e697469616c697a61626c653a20636f6e747261637420697320616c72656160408201526d191e481a5b9a5d1a585b1a5e995960921b606082015260800190565b60008160001904831182151516156111835761118361108a565b500290565b6000826111a557634e487b7160e01b600052601260045260246000fd5b500490565b600060208083528351808285015260005b818110156111d7578581018301518582016040015282016111bb565b818111156111e9576000604083870101525b50601f01601f191692909201604001939250505056fea2646970667358221220262e6d74f3c3a2a7d8bb01d0e81493ca52dc581fdd897dd907c7eb4ffa0ef14264736f6c634300080f0033",
  "immutableReferences": {},
  "source": "// SPDX-License-Identifier: MIT\npragma solidity ^0.8.0;\n\nimport \"../lib/SafeMath.sol\";\nimport \"@openzeppelin/contracts/token/ERC20/IERC20.sol\";\nimport \"../config/Config.sol\";\nimport \"./IHamsterPool.sol\";\nimport \"@openzeppelin/contracts-upgradeable/proxy/utils/Initializable.sol\";\n\ncontract HamsterPool is IHamsterPool, Initializable {\n    using SafeMath for uint256;\n\n    // provider address => staking amount(hamster erc20)\n    mapping(address => uint256) hamsterHolderStaking;\n\n    mapping(address => uint256) hamsterHolderWithdrawTime;\n\n    // Total of pledged hammer erc20\n    uint256 hamsterTokensAll;\n\n    mapping(address => uint256) distributionStakingMap;\n\n    mapping(address => uint256) withdrawGrtMap;\n\n    //Pledge sum used to calculate distribution proportion\n    uint256 distributionTokens;\n\n    //staking account array\n    address[] stakingAccount;\n\n    Config private _configContract;\n\n    // hamster coin token\n    address token;\n\n    function initialize(address _configAddress, address _hamsterCoinAddress) public initializer {\n        _configContract = Config(_configAddress);\n        token = _hamsterCoinAddress;\n    }\n\n\n    //staking hamster erc20\n    function staking(address _account,uint256 _tokens) public override {\n        require(IERC20(token).balanceOf(_account) >= _tokens,\"Insufficient account balance\");\n        require(IERC20(token).transferFrom(_account,address(this),_tokens),\"Pledge failed!\");\n        hamsterHolderStaking[_account] = hamsterHolderStaking[_account] + _tokens;\n        distributionStakingMap[_account] = distributionStakingMap[_account] + _tokens;\n        hamsterTokensAll = hamsterTokensAll + _tokens;\n        distributionTokens = distributionTokens + _tokens;\n        bool exist = false;\n        for(uint i=0;i<stakingAccount.length;i++) {\n            if(stakingAccount[i] == _account) {\n                exist = true;\n            }\n        }\n        if(!exist) {\n            stakingAccount.push(_account);\n        }\n        hamsterHolderWithdrawTime[_account] = block.number;\n    }\n\n    //distribution GRT income\n    function distributionGrt(address _proxyStakingContract, uint256 _tokens) public override {\n        address grtAddress = _configContract.getGrtTokenAddress();\n        require(IERC20(grtAddress).transferFrom(_proxyStakingContract,address(this),_tokens),\"Failed to allocate income\");\n        if(stakingAccount.length != 0) {\n            for(uint i=0;i<stakingAccount.length;i++) {\n                uint256 amount = distributionStakingMap[stakingAccount[i]];\n                withdrawGrtMap[stakingAccount[i]] = withdrawGrtMap[stakingAccount[i]] + amount.mul(_tokens).div(distributionTokens);\n                distributionStakingMap[stakingAccount[i]] = 0;\n            }\n            distributionTokens = 0;\n        }\n    }\n\n    //receive grt income\n    function withdrawGrt(address _account) public override {\n        uint256 amount = withdrawGrtMap[_account];\n        require(amount>0,\"Zero income\");\n        address grtAddress = _configContract.getGrtTokenAddress();\n        require(IERC20(grtAddress).balanceOf(address(this)) >= amount,\"Insufficient fund pool balance\");\n//        require(IERC20(grtAddress).approve(_account,amount),\"approve failed\");\n//        require(IERC20(grtAddress).transfer(_account,amount),\"Failed to collect income\");\n        require(IERC20(grtAddress).transfer(_account,amount),\"Failed to collect income\");\n        withdrawGrtMap[_account] = 0;\n    }\n\n    // Receive staking hamster\n    function withdraw(address _account,uint256 _tokens) public override {\n        uint256 stakingAmount = hamsterHolderStaking[_account];\n        require(stakingAmount > 0, \"No pledge amount can be collected\");\n        require(stakingAmount >= _tokens,\"The received amount exceeds the pledged amount\");\n        uint256 thawingPeriod = hamsterHolderWithdrawTime[_account];\n        uint256 configTime = _configContract.getThawingTime();\n        require((block.number - thawingPeriod) > configTime,\"Pledge cannot be retrieved within the freezing period\");\n        require(IERC20(token).transfer(_account,_tokens),\"transfer failed!\");\n        if (_tokens == stakingAmount) {\n            hamsterHolderStaking[_account] = 0;\n            hamsterHolderWithdrawTime[_account] = 0;\n        } else {\n            hamsterHolderStaking[_account] = hamsterHolderStaking[_account] - _tokens;\n        }\n    }\n\n    function hamsterBalance() public view override returns(uint256) {\n        return IERC20(token).balanceOf(address(this));\n    }\n\n    function grtBalance() public view override returns(uint256) {\n        address grtAddress = _configContract.getGrtTokenAddress();\n        return IERC20(grtAddress).balanceOf(address(this));\n    }\n\n    function getPoolAddress() public view override returns(address) {\n        return address(this);\n    }\n\n\n    function getAccountGrt(address _account) public view override returns(uint256) {\n        return withdrawGrtMap[_account];\n    }\n\n    function getStakingBalance(address _account) public view override returns(uint256) {\n        return hamsterHolderStaking[_account];\n    }\n}\n",
  "sourcePath": "/home/sunjianguo/GolandProjects/hamster-contracts/contracts/thegraph/HamsterPool.sol",
  "compiler": {
    "name": "solc",
    "version": "0.8.15+commit.e14f2714.Emscripten.clang"
  },
  "schemaVersion": "3.4.8",
  "updatedAt": "2022-07-29T06:40:11.367Z",
  "devdoc": {
    "kind": "dev",
    "methods": {},
    "version": 1
  },
  "userdoc": {
    "kind": "user",
    "methods": {},
    "version": 1
  }
}