{
  "contractName": "HamsterPool",
  "abi": [
    {
      "anonymous": false,
      "inputs": [
        {
          "indexed": false,
          "internalType": "uint8",
          "name": "version",
          "type": "uint8"
        }
      ],
      "name": "Initialized",
      "type": "event"
    },
    {
      "inputs": [
        {
          "internalType": "address",
          "name": "_configAddress",
          "type": "address"
        },
        {
          "internalType": "address",
          "name": "_hamsterCoinAddress",
          "type": "address"
        }
      ],
      "name": "initialize",
      "outputs": [],
      "stateMutability": "nonpayable",
      "type": "function"
    },
    {
      "inputs": [
        {
          "internalType": "address",
          "name": "_account",
          "type": "address"
        },
        {
          "internalType": "uint256",
          "name": "_tokens",
          "type": "uint256"
        }
      ],
      "name": "staking",
      "outputs": [],
      "stateMutability": "nonpayable",
      "type": "function"
    },
    {
      "inputs": [
        {
          "internalType": "address",
          "name": "_proxyStakingContract",
          "type": "address"
        },
        {
          "internalType": "uint256",
          "name": "_tokens",
          "type": "uint256"
        }
      ],
      "name": "distributionGrt",
      "outputs": [],
      "stateMutability": "nonpayable",
      "type": "function"
    },
    {
      "inputs": [
        {
          "internalType": "address",
          "name": "_account",
          "type": "address"
        }
      ],
      "name": "withdrawGrt",
      "outputs": [],
      "stateMutability": "nonpayable",
      "type": "function"
    },
    {
      "inputs": [
        {
          "internalType": "address",
          "name": "_account",
          "type": "address"
        },
        {
          "internalType": "uint256",
          "name": "_tokens",
          "type": "uint256"
        }
      ],
      "name": "withdraw",
      "outputs": [],
      "stateMutability": "nonpayable",
      "type": "function"
    },
    {
      "inputs": [],
      "name": "hamsterBalance",
      "outputs": [
        {
          "internalType": "uint256",
          "name": "",
          "type": "uint256"
        }
      ],
      "stateMutability": "view",
      "type": "function",
      "constant": true
    },
    {
      "inputs": [],
      "name": "grtBalance",
      "outputs": [
        {
          "internalType": "uint256",
          "name": "",
          "type": "uint256"
        }
      ],
      "stateMutability": "view",
      "type": "function",
      "constant": true
    },
    {
      "inputs": [],
      "name": "getPoolAddress",
      "outputs": [
        {
          "internalType": "address",
          "name": "",
          "type": "address"
        }
      ],
      "stateMutability": "view",
      "type": "function",
      "constant": true
    },
    {
      "inputs": [
        {
          "internalType": "address",
          "name": "_account",
          "type": "address"
        }
      ],
      "name": "getAccountGrt",
      "outputs": [
        {
          "internalType": "uint256",
          "name": "",
          "type": "uint256"
        }
      ],
      "stateMutability": "view",
      "type": "function",
      "constant": true
    },
    {
      "inputs": [
        {
          "internalType": "address",
          "name": "_account",
          "type": "address"
        }
      ],
      "name": "getStakingBalance",
      "outputs": [
        {
          "internalType": "uint256",
          "name": "",
          "type": "uint256"
        }
      ],
      "stateMutability": "view",
      "type": "function",
      "constant": true
    },
    {
      "inputs": [],
      "name": "getUnallocatedAmount",
      "outputs": [
        {
          "internalType": "uint256",
          "name": "",
          "type": "uint256"
        }
      ],
      "stateMutability": "view",
      "type": "function",
      "constant": true
    }
  ],
  "bytecode": "0x608060405234801561001057600080fd5b50611262806100206000396000f3fe608060405234801561001057600080fd5b50600436106100a95760003560e01c8063e201bb3111610071578063e201bb311461013f578063e3e90e7c14610152578063e9d9d8141461015a578063f3fef3a314610162578063f586c6d914610175578063ff4a36c71461018357600080fd5b806328733bb7146100ae578063485cc955146100c557806395dfea77146100da578063b04ef9c2146100ed578063b89b0ea314610116575b600080fd5b600a545b6040519081526020015b60405180910390f35b6100d86100d336600461100a565b610196565b005b6100d86100e8366004611043565b610235565b6100b26100fb36600461106f565b6001600160a01b031660009081526001602052604090205490565b6100b261012436600461106f565b6001600160a01b031660009081526005602052604090205490565b6100d861014d36600461106f565b61050b565b6100b2610763565b6100b261084e565b6100d8610170366004611043565b6108c0565b6040513081526020016100bc565b6100d8610191366004611043565b610bb8565b60006101a26001610e6b565b905080156101ba576000805461ff0019166101001790555b600880546001600160a01b038086166001600160a01b03199283161790925560098054928516929091169190911790558015610230576000805461ff0019169055604051600181527f7f26b83ff96e1f2b6a682f133852f6798a09c465da95921460cefb38474024989060200160405180910390a15b505050565b6009546040516370a0823160e01b81526001600160a01b038481166004830152839216906370a0823190602401602060405180830381865afa15801561027f573d6000803e3d6000fd5b505050506040513d601f19601f820116820180604052508101906102a3919061108c565b10156102f65760405162461bcd60e51b815260206004820152601c60248201527f496e73756666696369656e74206163636f756e742062616c616e63650000000060448201526064015b60405180910390fd5b6009546040516323b872dd60e01b81526001600160a01b03848116600483015230602483015260448201849052909116906323b872dd906064016020604051808303816000875af115801561034f573d6000803e3d6000fd5b505050506040513d601f19601f8201168201806040525081019061037391906110a5565b6103b05760405162461bcd60e51b815260206004820152600e60248201526d506c65646765206661696c65642160901b60448201526064016102ed565b6001600160a01b0382166000908152600160205260409020546103d49082906110dd565b6001600160a01b0383166000908152600160209081526040808320939093556004905220546104049082906110dd565b6001600160a01b03831660009081526004602052604090205560035461042b9082906110dd565b60035560065461043c9082906110dd565b6006556000805b60075481101561049b57836001600160a01b03166007828154811061046a5761046a6110f0565b6000918252602090912001546001600160a01b03160361048957600191505b8061049381611106565b915050610443565b50806104ed57600780546001810182556000919091527fa66cc928b5edb82af9bd49922954155ab7b0942694bea4ce44661d9a8736c6880180546001600160a01b0319166001600160a01b0385161790555b50506001600160a01b03166000908152600260205260409020439055565b6001600160a01b0381166000908152600560205260409020548061055f5760405162461bcd60e51b815260206004820152600b60248201526a5a65726f20696e636f6d6560a81b60448201526064016102ed565b60085460408051632053065f60e01b815290516000926001600160a01b031691632053065f9160048083019260209291908290030181865afa1580156105a9573d6000803e3d6000fd5b505050506040513d601f19601f820116820180604052508101906105cd919061111f565b6040516370a0823160e01b815230600482015290915082906001600160a01b038316906370a0823190602401602060405180830381865afa158015610616573d6000803e3d6000fd5b505050506040513d601f19601f8201168201806040525081019061063a919061108c565b10156106885760405162461bcd60e51b815260206004820152601e60248201527f496e73756666696369656e742066756e6420706f6f6c2062616c616e6365000060448201526064016102ed565b60405163a9059cbb60e01b81526001600160a01b0384811660048301526024820184905282169063a9059cbb906044016020604051808303816000875af11580156106d7573d6000803e3d6000fd5b505050506040513d601f19601f820116820180604052508101906106fb91906110a5565b6107475760405162461bcd60e51b815260206004820152601860248201527f4661696c656420746f20636f6c6c65637420696e636f6d65000000000000000060448201526064016102ed565b50506001600160a01b0316600090815260056020526040812055565b600080600860009054906101000a90046001600160a01b03166001600160a01b0316632053065f6040518163ffffffff1660e01b8152600401602060405180830381865afa1580156107b9573d6000803e3d6000fd5b505050506040513d601f19601f820116820180604052508101906107dd919061111f565b6040516370a0823160e01b81523060048201529091506001600160a01b038216906370a0823190602401602060405180830381865afa158015610824573d6000803e3d6000fd5b505050506040513d601f19601f82011682018060405250810190610848919061108c565b91505090565b6009546040516370a0823160e01b81523060048201526000916001600160a01b0316906370a0823190602401602060405180830381865afa158015610897573d6000803e3d6000fd5b505050506040513d601f19601f820116820180604052508101906108bb919061108c565b905090565b6001600160a01b038216600090815260016020526040902054806109305760405162461bcd60e51b815260206004820152602160248201527f4e6f20706c6564676520616d6f756e742063616e20626520636f6c6c656374656044820152601960fa1b60648201526084016102ed565b818110156109975760405162461bcd60e51b815260206004820152602e60248201527f54686520726563656976656420616d6f756e742065786365656473207468652060448201526d1c1b195919d95908185b5bdd5b9d60921b60648201526084016102ed565b6001600160a01b038084166000908152600260209081526040808320546008548251631d24435960e01b8152925191951692631d24435992600480820193918290030181865afa1580156109ef573d6000803e3d6000fd5b505050506040513d601f19601f82011682018060405250810190610a13919061108c565b905080610a20834361113c565b11610a8b5760405162461bcd60e51b815260206004820152603560248201527f506c656467652063616e6e6f74206265207265747269657665642077697468696044820152741b881d1a1948199c99595e9a5b99c81c195c9a5bd9605a1b60648201526084016102ed565b60095460405163a9059cbb60e01b81526001600160a01b038781166004830152602482018790529091169063a9059cbb906044016020604051808303816000875af1158015610ade573d6000803e3d6000fd5b505050506040513d601f19601f82011682018060405250810190610b0291906110a5565b610b415760405162461bcd60e51b815260206004820152601060248201526f7472616e73666572206661696c65642160801b60448201526064016102ed565b828403610b73576001600160a01b03851660009081526001602090815260408083208390556002909152812055610bb1565b6001600160a01b038516600090815260016020526040902054610b9790859061113c565b6001600160a01b0386166000908152600160205260409020555b5050505050565b60085460408051632053065f60e01b815290516000926001600160a01b031691632053065f9160048083019260209291908290030181865afa158015610c02573d6000803e3d6000fd5b505050506040513d601f19601f82011682018060405250810190610c26919061111f565b6040516323b872dd60e01b81526001600160a01b03858116600483015230602483015260448201859052919250908216906323b872dd906064016020604051808303816000875af1158015610c7f573d6000803e3d6000fd5b505050506040513d601f19601f82011682018060405250810190610ca391906110a5565b610cef5760405162461bcd60e51b815260206004820152601960248201527f4661696c656420746f20616c6c6f6361746520696e636f6d650000000000000060448201526064016102ed565b60075415610e5557600082600a54610d0791906110dd565b905060005b600754811015610e445760006004600060078481548110610d2f57610d2f6110f0565b60009182526020808320909101546001600160a01b03168352820192909252604001902054600654909150610d6e90610d688386610ef3565b90610f7e565b6005600060078581548110610d8557610d856110f0565b60009182526020808320909101546001600160a01b03168352820192909252604001902054610db491906110dd565b6005600060078581548110610dcb57610dcb6110f0565b60009182526020808320909101546001600160a01b0316835282019290925260400181209190915560078054600491839186908110610e0c57610e0c6110f0565b60009182526020808320909101546001600160a01b031683528201929092526040019020555080610e3c81611106565b915050610d0c565b505060006006819055600a55505050565b81600a54610e6391906110dd565b600a55505050565b60008054610100900460ff1615610eb2578160ff166001148015610e8e5750303b155b610eaa5760405162461bcd60e51b81526004016102ed9061114f565b506000919050565b60005460ff808416911610610ed95760405162461bcd60e51b81526004016102ed9061114f565b506000805460ff191660ff92909216919091179055600190565b600082600003610f0557506000610f78565b6000610f11838561119d565b905082610f1e85836111bc565b14610f755760405162461bcd60e51b815260206004820152602160248201527f536166654d6174683a206d756c7469706c69636174696f6e206f766572666c6f6044820152607760f81b60648201526084016102ed565b90505b92915050565b6000610f7583836040518060400160405280601a81526020017f536166654d6174683a206469766973696f6e206279207a65726f00000000000081525060008183610fdc5760405162461bcd60e51b81526004016102ed91906111de565b506000610fe984866111bc565b95945050505050565b6001600160a01b038116811461100757600080fd5b50565b6000806040838503121561101d57600080fd5b823561102881610ff2565b9150602083013561103881610ff2565b809150509250929050565b6000806040838503121561105657600080fd5b823561106181610ff2565b946020939093013593505050565b60006020828403121561108157600080fd5b8135610f7581610ff2565b60006020828403121561109e57600080fd5b5051919050565b6000602082840312156110b757600080fd5b81518015158114610f7557600080fd5b634e487b7160e01b600052601160045260246000fd5b80820180821115610f7857610f786110c7565b634e487b7160e01b600052603260045260246000fd5b600060018201611118576111186110c7565b5060010190565b60006020828403121561113157600080fd5b8151610f7581610ff2565b81810381811115610f7857610f786110c7565b6020808252602e908201527f496e697469616c697a61626c653a20636f6e747261637420697320616c72656160408201526d191e481a5b9a5d1a585b1a5e995960921b606082015260800190565b60008160001904831182151516156111b7576111b76110c7565b500290565b6000826111d957634e487b7160e01b600052601260045260246000fd5b500490565b600060208083528351808285015260005b8181101561120b578581018301518582016040015282016111ef565b506000604082860101526040601f19601f830116850101925050509291505056fea264697066735822122079edb886f6a2556ddf20ee25a53ffea58a1d9e3b568167dbf1b5c013471e9a0464736f6c63430008100033",
  "immutableReferences": {},
  "source": "// SPDX-License-Identifier: MIT\npragma solidity ^0.8.0;\n\nimport \"../lib/SafeMath.sol\";\nimport \"@openzeppelin/contracts/token/ERC20/IERC20.sol\";\nimport \"../config/Config.sol\";\nimport \"./IHamsterPool.sol\";\nimport \"@openzeppelin/contracts-upgradeable/proxy/utils/Initializable.sol\";\n\ncontract HamsterPool is IHamsterPool, Initializable {\n    using SafeMath for uint256;\n\n    // provider address => staking amount(hamster erc20)\n    mapping(address => uint256) hamsterHolderStaking;\n\n    mapping(address => uint256) hamsterHolderWithdrawTime;\n\n    // Total of pledged hammer erc20\n    uint256 hamsterTokensAll;\n\n    mapping(address => uint256) distributionStakingMap;\n\n    mapping(address => uint256) withdrawGrtMap;\n\n    //Pledge sum used to calculate distribution proportion\n    uint256 distributionTokens;\n\n    //staking account array\n    address[] stakingAccount;\n\n    Config private _configContract;\n\n    // hamster coin token\n    address token;\n\n    //Unallocated amount\n    uint256 unallocatedAmount;\n\n    function initialize(address _configAddress, address _hamsterCoinAddress) public initializer {\n        _configContract = Config(_configAddress);\n        token = _hamsterCoinAddress;\n    }\n\n\n    //staking hamster erc20\n    function staking(address _account,uint256 _tokens) public override {\n        require(IERC20(token).balanceOf(_account) >= _tokens,\"Insufficient account balance\");\n        require(IERC20(token).transferFrom(_account,address(this),_tokens),\"Pledge failed!\");\n        hamsterHolderStaking[_account] = hamsterHolderStaking[_account] + _tokens;\n        distributionStakingMap[_account] = distributionStakingMap[_account] + _tokens;\n        hamsterTokensAll = hamsterTokensAll + _tokens;\n        distributionTokens = distributionTokens + _tokens;\n        bool exist = false;\n        for(uint i=0;i<stakingAccount.length;i++) {\n            if(stakingAccount[i] == _account) {\n                exist = true;\n            }\n        }\n        if(!exist) {\n            stakingAccount.push(_account);\n        }\n        hamsterHolderWithdrawTime[_account] = block.number;\n    }\n\n    //distribution GRT income\n    function distributionGrt(address _proxyStakingContract, uint256 _tokens) public override {\n        address grtAddress = _configContract.getGrtTokenAddress();\n        require(IERC20(grtAddress).transferFrom(_proxyStakingContract,address(this),_tokens),\"Failed to allocate income\");\n        if(stakingAccount.length != 0) {\n            uint256 allocatedAmount = unallocatedAmount + _tokens;\n            for(uint i=0;i<stakingAccount.length;i++) {\n                uint256 amount = distributionStakingMap[stakingAccount[i]];\n                withdrawGrtMap[stakingAccount[i]] = withdrawGrtMap[stakingAccount[i]] + amount.mul(allocatedAmount).div(distributionTokens);\n                distributionStakingMap[stakingAccount[i]] = 0;\n            }\n            distributionTokens = 0;\n            unallocatedAmount = 0;\n        } else {\n            unallocatedAmount = unallocatedAmount + _tokens;\n        }\n    }\n\n    //receive grt income\n    function withdrawGrt(address _account) public override {\n        uint256 amount = withdrawGrtMap[_account];\n        require(amount>0,\"Zero income\");\n        address grtAddress = _configContract.getGrtTokenAddress();\n        require(IERC20(grtAddress).balanceOf(address(this)) >= amount,\"Insufficient fund pool balance\");\n        //        require(IERC20(grtAddress).approve(_account,amount),\"approve failed\");\n        //        require(IERC20(grtAddress).transfer(_account,amount),\"Failed to collect income\");\n        require(IERC20(grtAddress).transfer(_account,amount),\"Failed to collect income\");\n        withdrawGrtMap[_account] = 0;\n    }\n\n    // Receive staking hamster\n    function withdraw(address _account,uint256 _tokens) public override {\n        uint256 stakingAmount = hamsterHolderStaking[_account];\n        require(stakingAmount > 0, \"No pledge amount can be collected\");\n        require(stakingAmount >= _tokens,\"The received amount exceeds the pledged amount\");\n        uint256 thawingPeriod = hamsterHolderWithdrawTime[_account];\n        uint256 configTime = _configContract.getThawingTime();\n        require((block.number - thawingPeriod) > configTime,\"Pledge cannot be retrieved within the freezing period\");\n        require(IERC20(token).transfer(_account,_tokens),\"transfer failed!\");\n        if (_tokens == stakingAmount) {\n            hamsterHolderStaking[_account] = 0;\n            hamsterHolderWithdrawTime[_account] = 0;\n        } else {\n            hamsterHolderStaking[_account] = hamsterHolderStaking[_account] - _tokens;\n        }\n    }\n\n    function hamsterBalance() public view override returns(uint256) {\n        return IERC20(token).balanceOf(address(this));\n    }\n\n    function grtBalance() public view override returns(uint256) {\n        address grtAddress = _configContract.getGrtTokenAddress();\n        return IERC20(grtAddress).balanceOf(address(this));\n    }\n\n    function getPoolAddress() public view override returns(address) {\n        return address(this);\n    }\n\n\n    function getAccountGrt(address _account) public view override returns(uint256) {\n        return withdrawGrtMap[_account];\n    }\n\n    function getStakingBalance(address _account) public view override returns(uint256) {\n        return hamsterHolderStaking[_account];\n    }\n\n    function getUnallocatedAmount() public view returns(uint256) {\n        return unallocatedAmount;\n    }\n}\n",
  "sourcePath": "/home/sunjianguo/GolandProjects/hamster-contracts/contracts/thegraph/HamsterPool.sol",
  "compiler": {
    "name": "solc",
    "version": "0.8.16+commit.07a7930e.Emscripten.clang"
  },
  "schemaVersion": "3.4.8",
  "updatedAt": "2022-08-12T09:47:51.862Z",
  "networkType": "ethereum",
  "devdoc": {
    "kind": "dev",
    "methods": {},
    "version": 1
  },
  "userdoc": {
    "kind": "user",
    "methods": {},
    "version": 1
  }
}