{
  "contractName": "StakingProxyFactory",
  "abi": [
    {
      "anonymous": false,
      "inputs": [
        {
          "indexed": false,
          "internalType": "uint8",
          "name": "version",
          "type": "uint8"
        }
      ],
      "name": "Initialized",
      "type": "event"
    },
    {
      "inputs": [
        {
          "internalType": "address",
          "name": "_configAddress",
          "type": "address"
        },
        {
          "internalType": "address",
          "name": "_hamsterPoolAddress",
          "type": "address"
        }
      ],
      "name": "initialize",
      "outputs": [],
      "stateMutability": "nonpayable",
      "type": "function"
    },
    {
      "inputs": [
        {
          "internalType": "address",
          "name": "_indexerWalletAddress",
          "type": "address"
        }
      ],
      "name": "createStakingContract",
      "outputs": [],
      "stateMutability": "nonpayable",
      "type": "function"
    },
    {
      "inputs": [
        {
          "internalType": "address",
          "name": "_indexerWalletAddress",
          "type": "address"
        }
      ],
      "name": "getStakingAddress",
      "outputs": [
        {
          "internalType": "address",
          "name": "",
          "type": "address"
        }
      ],
      "stateMutability": "view",
      "type": "function",
      "constant": true
    }
  ],
  "bytecode": "0x608060405234801561001057600080fd5b50612451806100206000396000f3fe608060405234801561001057600080fd5b50600436106100415760003560e01c8063485cc955146100465780634a4cef401461005b5780637465cf971461006e575b600080fd5b6100596100543660046103a4565b6100b6565b005b6100596100693660046103dd565b610155565b61009a61007c3660046103dd565b6001600160a01b039081166000908152600160205260409020541690565b6040516001600160a01b03909116815260200160405180910390f35b60006100c260016102f7565b905080156100da576000805461ff0019166101001790555b600280546001600160a01b038086166001600160a01b03199283161790925560038054928516929091169190911790558015610150576000805461ff0019169055604051600181527f7f26b83ff96e1f2b6a682f133852f6798a09c465da95921460cefb38474024989060200160405180910390a15b505050565b6001600160a01b0381811660009081526001602052604090205416156101c25760405162461bcd60e51b815260206004820152601d60248201527f54686973206164647265737320686173206265656e20706c656467656400000060448201526064015b60405180910390fd5b6000816040516101d19061037f565b6001600160a01b039091168152602001604051809103906000f0801580156101fd573d6000803e3d6000fd5b509050806001600160a01b03166343a73d9a6040518163ffffffff1660e01b8152600401602060405180830381865afa15801561023e573d6000803e3d6000fd5b505050506040513d601f19601f820116820180604052508101906102629190610401565b6001600160a01b038381166000908152600160205260409081902080546001600160a01b031916938316939093179092556002546003549251631a5c4b7960e11b8152908216600482015291811660248301528216906334b896f290604401600060405180830381600087803b1580156102db57600080fd5b505af11580156102ef573d6000803e3d6000fd5b505050505050565b60008054610100900460ff161561033e578160ff16600114801561031a5750303b155b6103365760405162461bcd60e51b81526004016101b99061041e565b506000919050565b60005460ff8084169116106103655760405162461bcd60e51b81526004016101b99061041e565b506000805460ff191660ff92909216919091179055600190565b611faf8061046d83390190565b6001600160a01b03811681146103a157600080fd5b50565b600080604083850312156103b757600080fd5b82356103c28161038c565b915060208301356103d28161038c565b809150509250929050565b6000602082840312156103ef57600080fd5b81356103fa8161038c565b9392505050565b60006020828403121561041357600080fd5b81516103fa8161038c565b6020808252602e908201527f496e697469616c697a61626c653a20636f6e747261637420697320616c72656160408201526d191e481a5b9a5d1a585b1a5e995960921b60608201526080019056fe6080604052604051611faf380380611faf83398101604081905261002291610047565b600080546001600160a01b0319166001600160a01b0392909216919091179055610077565b60006020828403121561005957600080fd5b81516001600160a01b038116811461007057600080fd5b9392505050565b611f29806100866000396000f3fe608060405234801561001057600080fd5b50600436106101215760003560e01c806343d342a1116100ad578063b90bbf7b11610071578063b90bbf7b14610259578063b951340814610261578063ced066c914610269578063e44ad80c14610271578063f247e3de1461028457600080fd5b806343d342a1146101f3578063558a729714610206578063716752fa14610219578063ac06f36614610221578063b6ba3e131461022957600080fd5b806334b896f2116100f457806334b896f21461017157806338cc4831146101ad5780633ccfd60b146101d25780633f230872146101da57806343a73d9a146101ed57600080fd5b806312065fe0146101265780631a0fa8c3146101415780631dbb2a221461014b5780632e17de781461015e575b600080fd5b61012e61028c565b6040519081526020015b60405180910390f35b610149610377565b005b610149610159366004611cd4565b6106eb565b61014961016c366004611cd4565b610c17565b61014961017f366004611d05565b600380546001600160a01b039384166001600160a01b03199182161790915560048054929093169116179055565b6000546001600160a01b03165b6040516001600160a01b039091168152602001610138565b610149610d56565b6101496101e8366004611cd4565b600155565b306101ba565b610149610201366004611cd4565b610f71565b610149610214366004611d4c565b6113c9565b6101ba6114a3565b61012e611516565b610149610237366004611d7a565b600080546001600160a01b0319166001600160a01b0392909216919091179055565b6101496116b9565b60055461012e565b60015461012e565b61014961027f366004611cd4565b611786565b61012e611a4a565b600080600360009054906101000a90046001600160a01b03166001600160a01b0316632053065f6040518163ffffffff1660e01b8152600401602060405180830381865afa1580156102e2573d6000803e3d6000fd5b505050506040513d601f19601f820116820180604052508101906103069190611d97565b6040516370a0823160e01b81523060048201529091506001600160a01b038216906370a0823190602401602060405180830381865afa15801561034d573d6000803e3d6000fd5b505050506040513d601f19601f820116820180604052508101906103719190611db4565b91505090565b60035460408051632053065f60e01b815290516000926001600160a01b031691632053065f9160048083019260209291908290030181865afa1580156103c1573d6000803e3d6000fd5b505050506040513d601f19601f820116820180604052508101906103e59190611d97565b6040516370a0823160e01b81523060048201529091506000906001600160a01b038316906370a0823190602401602060405180830381865afa15801561042f573d6000803e3d6000fd5b505050506040513d601f19601f820116820180604052508101906104539190611db4565b90506000811161047e5760405162461bcd60e51b815260040161047590611dcd565b60405180910390fd5b600354604080516316522e2d60e01b815290516000926001600160a01b0316916316522e2d9160048083019260209291908290030181865afa1580156104c8573d6000803e3d6000fd5b505050506040513d601f19601f820116820180604052508101906104ec9190611db4565b9050600061050560646104ff8585611bde565b90611c69565b905060006105138285611e11565b60005460405163a9059cbb60e01b81526001600160a01b0391821660048201526024810183905291925086169063a9059cbb906044016020604051808303816000875af1158015610568573d6000803e3d6000fd5b505050506040513d601f19601f8201168201806040525081019061058c9190611e28565b61059557600080fd5b600480546040805163f586c6d960e01b815290516001600160a01b03808a169463095ea7b3949091169263f586c6d992818301926020928290030181865afa1580156105e5573d6000803e3d6000fd5b505050506040513d601f19601f820116820180604052508101906106099190611d97565b6040516001600160e01b031960e084901b1681526001600160a01b039091166004820152602481018590526044016020604051808303816000875af1158015610656573d6000803e3d6000fd5b505050506040513d601f19601f8201168201806040525081019061067a9190611e28565b5060048054604051600162b5c93960e01b031981523092810192909252602482018490526001600160a01b03169063ff4a36c7906044015b600060405180830381600087803b1580156106cc57600080fd5b505af11580156106e0573d6000803e3d6000fd5b505050505050505050565b7fcf34ef537ac33ee1ac626ca1587a0a7e8e51561e5514f8cb36afa1c5102b3bab604051610738906020808252600b908201526a18d85b1b081b595d1a1bd960aa1b604082015260600190565b60405180910390a16000811161077a5760405162461bcd60e51b815260206004820152600760248201526621746f6b656e7360c81b6044820152606401610475565b60035460408051632053065f60e01b815290516000926001600160a01b031691632053065f9160048083019260209291908290030181865afa1580156107c4573d6000803e3d6000fd5b505050506040513d601f19601f820116820180604052508101906107e89190611d97565b600080546040516370a0823160e01b81526001600160a01b0391821660048201529293509091908316906370a0823190602401602060405180830381865afa158015610838573d6000803e3d6000fd5b505050506040513d601f19601f8201168201806040525081019061085c9190611db4565b9050828110156108ae5760405162461bcd60e51b815260206004820152601c60248201527f496e73756666696369656e74206163636f756e742062616c616e6365000000006044820152606401610475565b6000546040516323b872dd60e01b81526001600160a01b03918216600482015230602482015260448101859052908316906323b872dd906064016020604051808303816000875af1158015610907573d6000803e3d6000fd5b505050506040513d601f19601f8201168201806040525081019061092b9190611e28565b6109775760405162461bcd60e51b815260206004820181905260248201527f7374616b696e673a20696e6465786572207472616e73666572206661696c65646044820152606401610475565b6000826001600160a01b031663095ea7b3600360009054906101000a90046001600160a01b03166001600160a01b0316634c94f61a6040518163ffffffff1660e01b8152600401602060405180830381865afa1580156109db573d6000803e3d6000fd5b505050506040513d601f19601f820116820180604052508101906109ff9190611d97565b6040516001600160e01b031960e084901b1681526001600160a01b039091166004820152602481018790526044016020604051808303816000875af1158015610a4c573d6000803e3d6000fd5b505050506040513d601f19601f82011682018060405250810190610a709190611e28565b9050600181151514610ab55760405162461bcd60e51b815260206004820152600e60248201526d185c1c1c9bdd994819985a5b195960921b6044820152606401610475565b6003546040805163264a7b0d60e11b815290516000926001600160a01b031691634c94f61a9160048083019260209291908290030181865afa158015610aff573d6000803e3d6000fd5b505050506040513d601f19601f82011682018060405250810190610b239190611d97565b60405163534a7e1d60e11b8152600481018790529091506001600160a01b0382169063a694fc3a90602401600060405180830381600087803b158015610b6857600080fd5b505af1158015610b7c573d6000803e3d6000fd5b505050600186815560005460405163558a729760e01b81526001600160a01b03918216600482015260248101929092528316915063558a729790604401600060405180830381600087803b158015610bd357600080fd5b505af1158015610be7573d6000803e3d6000fd5b505060405163772495c360e01b81523060048201526001600160a01b038416925063772495c391506024016106b2565b60015481600554610c289190611e45565b1115610c765760405162461bcd60e51b815260206004820181905260248201527f776974686472617720616d6f756e74203e207374616b696e6720616d6f756e746044820152606401610475565b6003546040805163264a7b0d60e11b815290516000926001600160a01b031691634c94f61a9160048083019260209291908290030181865afa158015610cc0573d6000803e3d6000fd5b505050506040513d601f19601f82011682018060405250810190610ce49190611d97565b6040516305c2fbcf60e31b8152600481018490529091506001600160a01b03821690632e17de7890602401600060405180830381600087803b158015610d2957600080fd5b505af1158015610d3d573d6000803e3d6000fd5b5050505081600554610d4f9190611e45565b6005555050565b6003546040805163264a7b0d60e11b815290516000926001600160a01b031691634c94f61a9160048083019260209291908290030181865afa158015610da0573d6000803e3d6000fd5b505050506040513d601f19601f82011682018060405250810190610dc49190611d97565b9050806001600160a01b0316633ccfd60b6040518163ffffffff1660e01b8152600401600060405180830381600087803b158015610e0157600080fd5b505af1158015610e15573d6000803e3d6000fd5b50505050600360009054906101000a90046001600160a01b03166001600160a01b0316632053065f6040518163ffffffff1660e01b8152600401602060405180830381865afa158015610e6c573d6000803e3d6000fd5b505050506040513d601f19601f82011682018060405250810190610e909190611d97565b60005460055460405163a9059cbb60e01b81526001600160a01b039283166004820152602481019190915291169063a9059cbb906044016020604051808303816000875af1158015610ee6573d6000803e3d6000fd5b505050506040513d601f19601f82011682018060405250810190610f0a9190611e28565b610f565760405162461bcd60e51b815260206004820181905260248201527f7769746864726177207472616e7366657220696e6465786572206661696c65646044820152606401610475565b600554600154610f669190611e11565b600155506000600555565b60008111610fab5760405162461bcd60e51b815260206004820152600760248201526621746f6b656e7360c81b6044820152606401610475565b60035460408051632053065f60e01b815290516000926001600160a01b031691632053065f9160048083019260209291908290030181865afa158015610ff5573d6000803e3d6000fd5b505050506040513d601f19601f820116820180604052508101906110199190611d97565b600080546040516370a0823160e01b81526001600160a01b0391821660048201529293509091908316906370a0823190602401602060405180830381865afa158015611069573d6000803e3d6000fd5b505050506040513d601f19601f8201168201806040525081019061108d9190611db4565b9050828110156110df5760405162461bcd60e51b815260206004820152601c60248201527f496e73756666696369656e74206163636f756e742062616c616e6365000000006044820152606401610475565b6000826001600160a01b031663095ea7b3600360009054906101000a90046001600160a01b03166001600160a01b0316634c94f61a6040518163ffffffff1660e01b8152600401602060405180830381865afa158015611143573d6000803e3d6000fd5b505050506040513d601f19601f820116820180604052508101906111679190611d97565b6040516001600160e01b031960e084901b1681526001600160a01b039091166004820152602481018790526044016020604051808303816000875af11580156111b4573d6000803e3d6000fd5b505050506040513d601f19601f820116820180604052508101906111d89190611e28565b905060018115151461121d5760405162461bcd60e51b815260206004820152600e60248201526d185c1c1c9bdd994819985a5b195960921b6044820152606401610475565b6000546040516323b872dd60e01b81526001600160a01b03918216600482015230602482015260448101869052908416906323b872dd906064016020604051808303816000875af1158015611276573d6000803e3d6000fd5b505050506040513d601f19601f8201168201806040525081019061129a9190611e28565b6112e65760405162461bcd60e51b815260206004820181905260248201527f7374616b696e673a20696e6465786572207472616e73666572206661696c65646044820152606401610475565b6003546040805163264a7b0d60e11b815290516000926001600160a01b031691634c94f61a9160048083019260209291908290030181865afa158015611330573d6000803e3d6000fd5b505050506040513d601f19601f820116820180604052508101906113549190611d97565b60405163534a7e1d60e11b8152600481018790529091506001600160a01b0382169063a694fc3a90602401600060405180830381600087803b15801561139957600080fd5b505af11580156113ad573d6000803e3d6000fd5b50505050846001546113bf9190611e45565b6001555050505050565b6003546040805163264a7b0d60e11b815290516000926001600160a01b031691634c94f61a9160048083019260209291908290030181865afa158015611413573d6000803e3d6000fd5b505050506040513d601f19601f820116820180604052508101906114379190611d97565b60405163558a729760e01b81526001600160a01b03858116600483015284151560248301529192509082169063558a729790604401600060405180830381600087803b15801561148657600080fd5b505af115801561149a573d6000803e3d6000fd5b50505050505050565b60035460408051632053065f60e01b815290516000926001600160a01b031691632053065f9160048083019260209291908290030181865afa1580156114ed573d6000803e3d6000fd5b505050506040513d601f19601f820116820180604052508101906115119190611d97565b905090565b600080600360009054906101000a90046001600160a01b03166001600160a01b0316632053065f6040518163ffffffff1660e01b8152600401602060405180830381865afa15801561156c573d6000803e3d6000fd5b505050506040513d601f19601f820116820180604052508101906115909190611d97565b6040516370a0823160e01b81523060048201529091506000906001600160a01b038316906370a0823190602401602060405180830381865afa1580156115da573d6000803e3d6000fd5b505050506040513d601f19601f820116820180604052508101906115fe9190611db4565b9050600081116116205760405162461bcd60e51b815260040161047590611dcd565b600354604080516316522e2d60e01b815290516000926001600160a01b0316916316522e2d9160048083019260209291908290030181865afa15801561166a573d6000803e3d6000fd5b505050506040513d601f19601f8201168201806040525081019061168e9190611db4565b905060006116a160646104ff8585611bde565b905060006116af8285611e11565b9695505050505050565b6003546040805163264a7b0d60e11b815290516000926001600160a01b031691634c94f61a9160048083019260209291908290030181865afa158015611703573d6000803e3d6000fd5b505050506040513d601f19601f820116820180604052508101906117279190611d97565b60405163772495c360e01b81523060048201529091506001600160a01b0382169063772495c390602401600060405180830381600087803b15801561176b57600080fd5b505af115801561177f573d6000803e3d6000fd5b5050505050565b6001548111156117d85760405162461bcd60e51b815260206004820181905260248201527f776974686472617720616d6f756e74203e207374616b696e6720616d6f756e746044820152606401610475565b60035460408051632053065f60e01b815290516000926001600160a01b031691632053065f9160048083019260209291908290030181865afa158015611822573d6000803e3d6000fd5b505050506040513d601f19601f820116820180604052508101906118469190611d97565b90506000600360009054906101000a90046001600160a01b03166001600160a01b0316634c94f61a6040518163ffffffff1660e01b8152600401602060405180830381865afa15801561189d573d6000803e3d6000fd5b505050506040513d601f19601f820116820180604052508101906118c19190611d97565b6040516305c2fbcf60e31b8152600481018590529091506001600160a01b03821690632e17de7890602401600060405180830381600087803b15801561190657600080fd5b505af115801561191a573d6000803e3d6000fd5b50505050806001600160a01b0316633ccfd60b6040518163ffffffff1660e01b8152600401600060405180830381600087803b15801561195957600080fd5b505af115801561196d573d6000803e3d6000fd5b505060005460405163a9059cbb60e01b81526001600160a01b03918216600482015260248101879052908516925063a9059cbb91506044016020604051808303816000875af11580156119c4573d6000803e3d6000fd5b505050506040513d601f19601f820116820180604052508101906119e89190611e28565b611a345760405162461bcd60e51b815260206004820181905260248201527f7769746864726177207472616e7366657220696e6465786572206661696c65646044820152606401610475565b82600154611a429190611e11565b600155505050565b600080600360009054906101000a90046001600160a01b03166001600160a01b0316632053065f6040518163ffffffff1660e01b8152600401602060405180830381865afa158015611aa0573d6000803e3d6000fd5b505050506040513d601f19601f82011682018060405250810190611ac49190611d97565b6040516370a0823160e01b81523060048201529091506000906001600160a01b038316906370a0823190602401602060405180830381865afa158015611b0e573d6000803e3d6000fd5b505050506040513d601f19601f82011682018060405250810190611b329190611db4565b905060008111611b545760405162461bcd60e51b815260040161047590611dcd565b600354604080516316522e2d60e01b815290516000926001600160a01b0316916316522e2d9160048083019260209291908290030181865afa158015611b9e573d6000803e3d6000fd5b505050506040513d601f19601f82011682018060405250810190611bc29190611db4565b90506000611bd560646104ff8585611bde565b95945050505050565b600082600003611bf057506000611c63565b6000611bfc8385611e5d565b905082611c098583611e7c565b14611c605760405162461bcd60e51b815260206004820152602160248201527f536166654d6174683a206d756c7469706c69636174696f6e206f766572666c6f6044820152607760f81b6064820152608401610475565b90505b92915050565b6000611c6083836040518060400160405280601a81526020017f536166654d6174683a206469766973696f6e206279207a65726f00000000000081525060008183611cc75760405162461bcd60e51b81526004016104759190611e9e565b506000611bd58486611e7c565b600060208284031215611ce657600080fd5b5035919050565b6001600160a01b0381168114611d0257600080fd5b50565b60008060408385031215611d1857600080fd5b8235611d2381611ced565b91506020830135611d3381611ced565b809150509250929050565b8015158114611d0257600080fd5b60008060408385031215611d5f57600080fd5b8235611d6a81611ced565b91506020830135611d3381611d3e565b600060208284031215611d8c57600080fd5b8135611c6081611ced565b600060208284031215611da957600080fd5b8151611c6081611ced565b600060208284031215611dc657600080fd5b5051919050565b6020808252601490820152734e6f20696e636f6d6520746f207265636569766560601b604082015260600190565b634e487b7160e01b600052601160045260246000fd5b600082821015611e2357611e23611dfb565b500390565b600060208284031215611e3a57600080fd5b8151611c6081611d3e565b60008219821115611e5857611e58611dfb565b500190565b6000816000190483118215151615611e7757611e77611dfb565b500290565b600082611e9957634e487b7160e01b600052601260045260246000fd5b500490565b600060208083528351808285015260005b81811015611ecb57858101830151858201604001528201611eaf565b81811115611edd576000604083870101525b50601f01601f191692909201604001939250505056fea2646970667358221220baca93137c9cb91e118ac5100736b2f43ade55157b6c8fd25a333015458091b964736f6c634300080f0033a2646970667358221220431279f5501ad4618d9b5ca25853382978f91f50c64d9d76f9a420101eef370a64736f6c634300080f0033",
  "immutableReferences": {},
  "source": "// SPDX-License-Identifier: MIT\npragma solidity ^0.8.0;\nimport \"./StakingDistributionProxy.sol\";\nimport \"../lib/SafeMath.sol\";\nimport \"./IStakingProxyFactory.sol\";\nimport \"@openzeppelin/contracts-upgradeable/proxy/utils/Initializable.sol\";\n\ncontract StakingProxyFactory is IStakingProxyFactory,Initializable{\n    using SafeMath for uint256;\n\n    // indexer address => staking contract address\n    mapping(address => address) stakingAddress;\n\n\n    address private configAddress;\n\n    address private hamsterPoolAddress;\n\n\n    function initialize(address _configAddress,address _hamsterPoolAddress) public initializer {\n        configAddress = _configAddress;\n        hamsterPoolAddress = _hamsterPoolAddress;\n    }\n\n    //new staking distribution contract\n    function createStakingContract(address _indexerWalletAddress) public override{\n        require(stakingAddress[_indexerWalletAddress] == address(0), \"This address has been pledged\");\n        StakingDistributionProxy stakingDistribution = new StakingDistributionProxy(_indexerWalletAddress);\n        stakingAddress[_indexerWalletAddress] = stakingDistribution.getProxyAddress();\n        stakingDistribution._init(configAddress,hamsterPoolAddress);\n    }\n\n    function getStakingAddress(address _indexerWalletAddress) public view override returns (address) {\n        return stakingAddress[_indexerWalletAddress];\n    }\n\n}\n",
  "sourcePath": "/home/sunjianguo/GolandProjects/hamster-contracts/contracts/thegraph/StakingProxyFactory.sol",
  "compiler": {
    "name": "solc",
    "version": "0.8.15+commit.e14f2714.Emscripten.clang"
  },
  "schemaVersion": "3.4.8",
  "updatedAt": "2022-07-29T07:08:55.660Z",
  "networkType": "ethereum",
  "devdoc": {
    "kind": "dev",
    "methods": {},
    "version": 1
  },
  "userdoc": {
    "kind": "user",
    "methods": {},
    "version": 1
  }
}