{
  "contractName": "StakingDistribution",
  "abi": [
    {
      "inputs": [
        {
          "internalType": "address",
          "name": "_indexerWalletAddress",
          "type": "address"
        }
      ],
      "stateMutability": "payable",
      "type": "constructor"
    },
    {
      "anonymous": false,
      "inputs": [
        {
          "indexed": false,
          "internalType": "string",
          "name": "",
          "type": "string"
        }
      ],
      "name": "Log",
      "type": "event"
    },
    {
      "inputs": [
        {
          "internalType": "address",
          "name": "_configContractAddress",
          "type": "address"
        },
        {
          "internalType": "address",
          "name": "_hamsterPoolAddress",
          "type": "address"
        }
      ],
      "name": "_init",
      "outputs": [],
      "stateMutability": "nonpayable",
      "type": "function"
    },
    {
      "inputs": [
        {
          "internalType": "address",
          "name": "_indexerWalletAddress",
          "type": "address"
        }
      ],
      "name": "setIndexerAddress",
      "outputs": [],
      "stateMutability": "nonpayable",
      "type": "function"
    },
    {
      "inputs": [
        {
          "internalType": "uint256",
          "name": "_stakingAmount",
          "type": "uint256"
        }
      ],
      "name": "setStakingAmount",
      "outputs": [],
      "stateMutability": "nonpayable",
      "type": "function"
    },
    {
      "inputs": [],
      "name": "getProxyAddress",
      "outputs": [
        {
          "internalType": "address",
          "name": "",
          "type": "address"
        }
      ],
      "stateMutability": "view",
      "type": "function"
    },
    {
      "inputs": [],
      "name": "getStakingAmount",
      "outputs": [
        {
          "internalType": "uint256",
          "name": "",
          "type": "uint256"
        }
      ],
      "stateMutability": "view",
      "type": "function"
    },
    {
      "inputs": [],
      "name": "getAddress",
      "outputs": [
        {
          "internalType": "address",
          "name": "",
          "type": "address"
        }
      ],
      "stateMutability": "view",
      "type": "function"
    },
    {
      "inputs": [],
      "name": "getBalance",
      "outputs": [
        {
          "internalType": "uint256",
          "name": "",
          "type": "uint256"
        }
      ],
      "stateMutability": "view",
      "type": "function"
    },
    {
      "inputs": [
        {
          "internalType": "uint256",
          "name": "_stakingAmount",
          "type": "uint256"
        }
      ],
      "name": "staking",
      "outputs": [],
      "stateMutability": "nonpayable",
      "type": "function"
    },
    {
      "inputs": [
        {
          "internalType": "uint256",
          "name": "_stakingAmount",
          "type": "uint256"
        }
      ],
      "name": "rePledge",
      "outputs": [],
      "stateMutability": "nonpayable",
      "type": "function"
    },
    {
      "inputs": [],
      "name": "withdrawIncome",
      "outputs": [],
      "stateMutability": "nonpayable",
      "type": "function"
    },
    {
      "inputs": [
        {
          "internalType": "uint256",
          "name": "_tokens",
          "type": "uint256"
        }
      ],
      "name": "retrieveStaking",
      "outputs": [],
      "stateMutability": "nonpayable",
      "type": "function"
    },
    {
      "inputs": [
        {
          "internalType": "address",
          "name": "_operator",
          "type": "address"
        },
        {
          "internalType": "bool",
          "name": "_allowed",
          "type": "bool"
        }
      ],
      "name": "setOperator",
      "outputs": [],
      "stateMutability": "nonpayable",
      "type": "function"
    },
    {
      "inputs": [],
      "name": "setRewardsDestination",
      "outputs": [],
      "stateMutability": "nonpayable",
      "type": "function"
    },
    {
      "inputs": [],
      "name": "gainIncome",
      "outputs": [
        {
          "internalType": "uint256",
          "name": "",
          "type": "uint256"
        }
      ],
      "stateMutability": "view",
      "type": "function"
    },
    {
      "inputs": [],
      "name": "getGrtAddress",
      "outputs": [
        {
          "internalType": "address",
          "name": "",
          "type": "address"
        }
      ],
      "stateMutability": "view",
      "type": "function"
    },
    {
      "inputs": [],
      "name": "getIncome",
      "outputs": [
        {
          "internalType": "uint256",
          "name": "",
          "type": "uint256"
        }
      ],
      "stateMutability": "view",
      "type": "function"
    },
    {
      "inputs": [
        {
          "internalType": "uint256",
          "name": "_tokens",
          "type": "uint256"
        }
      ],
      "name": "unstake",
      "outputs": [],
      "stateMutability": "nonpayable",
      "type": "function"
    },
    {
      "inputs": [],
      "name": "getUnStakingAmount",
      "outputs": [
        {
          "internalType": "uint256",
          "name": "",
          "type": "uint256"
        }
      ],
      "stateMutability": "view",
      "type": "function"
    },
    {
      "inputs": [],
      "name": "withdraw",
      "outputs": [],
      "stateMutability": "nonpayable",
      "type": "function"
    }
  ],
  "bytecode": "0x6080604052604051611fae380380611fae83398101604081905261002291610047565b600080546001600160a01b0319166001600160a01b0392909216919091179055610077565b60006020828403121561005957600080fd5b81516001600160a01b038116811461007057600080fd5b9392505050565b611f28806100866000396000f3fe608060405234801561001057600080fd5b50600436106101215760003560e01c806343d342a1116100ad578063b90bbf7b11610071578063b90bbf7b14610259578063b951340814610261578063ced066c914610269578063e44ad80c14610271578063f247e3de1461028457600080fd5b806343d342a1146101f3578063558a729714610206578063716752fa14610219578063ac06f36614610221578063b6ba3e131461022957600080fd5b806334b896f2116100f457806334b896f21461017157806338cc4831146101ad5780633ccfd60b146101d25780633f230872146101da57806343a73d9a146101ed57600080fd5b806312065fe0146101265780631a0fa8c3146101415780631dbb2a221461014b5780632e17de781461015e575b600080fd5b61012e61028c565b6040519081526020015b60405180910390f35b610149610377565b005b610149610159366004611ce3565b6106eb565b61014961016c366004611ce3565b610c17565b61014961017f366004611d14565b600380546001600160a01b039384166001600160a01b03199182161790915560048054929093169116179055565b6000546001600160a01b03165b6040516001600160a01b039091168152602001610138565b610149610d56565b6101496101e8366004611ce3565b600155565b306101ba565b610149610201366004611ce3565b610f71565b610149610214366004611d5b565b6113c9565b6101ba6114a3565b61012e611516565b610149610237366004611d89565b600080546001600160a01b0319166001600160a01b0392909216919091179055565b6101496116c8565b60055461012e565b60015461012e565b61014961027f366004611ce3565b611795565b61012e611a59565b600080600360009054906101000a90046001600160a01b03166001600160a01b0316632053065f6040518163ffffffff1660e01b8152600401602060405180830381865afa1580156102e2573d6000803e3d6000fd5b505050506040513d601f19601f820116820180604052508101906103069190611da6565b6040516370a0823160e01b81523060048201529091506001600160a01b038216906370a0823190602401602060405180830381865afa15801561034d573d6000803e3d6000fd5b505050506040513d601f19601f820116820180604052508101906103719190611dc3565b91505090565b60035460408051632053065f60e01b815290516000926001600160a01b031691632053065f9160048083019260209291908290030181865afa1580156103c1573d6000803e3d6000fd5b505050506040513d601f19601f820116820180604052508101906103e59190611da6565b6040516370a0823160e01b81523060048201529091506000906001600160a01b038316906370a0823190602401602060405180830381865afa15801561042f573d6000803e3d6000fd5b505050506040513d601f19601f820116820180604052508101906104539190611dc3565b90506000811161047e5760405162461bcd60e51b815260040161047590611ddc565b60405180910390fd5b600354604080516316522e2d60e01b815290516000926001600160a01b0316916316522e2d9160048083019260209291908290030181865afa1580156104c8573d6000803e3d6000fd5b505050506040513d601f19601f820116820180604052508101906104ec9190611dc3565b9050600061050560646104ff8585611bed565b90611c78565b905060006105138285611e20565b60005460405163a9059cbb60e01b81526001600160a01b0391821660048201526024810183905291925086169063a9059cbb906044016020604051808303816000875af1158015610568573d6000803e3d6000fd5b505050506040513d601f19601f8201168201806040525081019061058c9190611e33565b61059557600080fd5b600480546040805163f586c6d960e01b815290516001600160a01b03808a169463095ea7b3949091169263f586c6d992818301926020928290030181865afa1580156105e5573d6000803e3d6000fd5b505050506040513d601f19601f820116820180604052508101906106099190611da6565b6040516001600160e01b031960e084901b1681526001600160a01b039091166004820152602481018590526044016020604051808303816000875af1158015610656573d6000803e3d6000fd5b505050506040513d601f19601f8201168201806040525081019061067a9190611e33565b5060048054604051600162b5c93960e01b031981523092810192909252602482018490526001600160a01b03169063ff4a36c7906044015b600060405180830381600087803b1580156106cc57600080fd5b505af11580156106e0573d6000803e3d6000fd5b505050505050505050565b7fcf34ef537ac33ee1ac626ca1587a0a7e8e51561e5514f8cb36afa1c5102b3bab604051610738906020808252600b908201526a18d85b1b081b595d1a1bd960aa1b604082015260600190565b60405180910390a16000811161077a5760405162461bcd60e51b815260206004820152600760248201526621746f6b656e7360c81b6044820152606401610475565b60035460408051632053065f60e01b815290516000926001600160a01b031691632053065f9160048083019260209291908290030181865afa1580156107c4573d6000803e3d6000fd5b505050506040513d601f19601f820116820180604052508101906107e89190611da6565b600080546040516370a0823160e01b81526001600160a01b0391821660048201529293509091908316906370a0823190602401602060405180830381865afa158015610838573d6000803e3d6000fd5b505050506040513d601f19601f8201168201806040525081019061085c9190611dc3565b9050828110156108ae5760405162461bcd60e51b815260206004820152601c60248201527f496e73756666696369656e74206163636f756e742062616c616e6365000000006044820152606401610475565b6000546040516323b872dd60e01b81526001600160a01b03918216600482015230602482015260448101859052908316906323b872dd906064016020604051808303816000875af1158015610907573d6000803e3d6000fd5b505050506040513d601f19601f8201168201806040525081019061092b9190611e33565b6109775760405162461bcd60e51b815260206004820181905260248201527f7374616b696e673a20696e6465786572207472616e73666572206661696c65646044820152606401610475565b6000826001600160a01b031663095ea7b3600360009054906101000a90046001600160a01b03166001600160a01b0316634c94f61a6040518163ffffffff1660e01b8152600401602060405180830381865afa1580156109db573d6000803e3d6000fd5b505050506040513d601f19601f820116820180604052508101906109ff9190611da6565b6040516001600160e01b031960e084901b1681526001600160a01b039091166004820152602481018790526044016020604051808303816000875af1158015610a4c573d6000803e3d6000fd5b505050506040513d601f19601f82011682018060405250810190610a709190611e33565b9050600181151514610ab55760405162461bcd60e51b815260206004820152600e60248201526d185c1c1c9bdd994819985a5b195960921b6044820152606401610475565b6003546040805163264a7b0d60e11b815290516000926001600160a01b031691634c94f61a9160048083019260209291908290030181865afa158015610aff573d6000803e3d6000fd5b505050506040513d601f19601f82011682018060405250810190610b239190611da6565b60405163534a7e1d60e11b8152600481018790529091506001600160a01b0382169063a694fc3a90602401600060405180830381600087803b158015610b6857600080fd5b505af1158015610b7c573d6000803e3d6000fd5b505050600186815560005460405163558a729760e01b81526001600160a01b03918216600482015260248101929092528316915063558a729790604401600060405180830381600087803b158015610bd357600080fd5b505af1158015610be7573d6000803e3d6000fd5b505060405163772495c360e01b81523060048201526001600160a01b038416925063772495c391506024016106b2565b60015481600554610c289190611e50565b1115610c765760405162461bcd60e51b815260206004820181905260248201527f776974686472617720616d6f756e74203e207374616b696e6720616d6f756e746044820152606401610475565b6003546040805163264a7b0d60e11b815290516000926001600160a01b031691634c94f61a9160048083019260209291908290030181865afa158015610cc0573d6000803e3d6000fd5b505050506040513d601f19601f82011682018060405250810190610ce49190611da6565b6040516305c2fbcf60e31b8152600481018490529091506001600160a01b03821690632e17de7890602401600060405180830381600087803b158015610d2957600080fd5b505af1158015610d3d573d6000803e3d6000fd5b5050505081600554610d4f9190611e50565b6005555050565b6003546040805163264a7b0d60e11b815290516000926001600160a01b031691634c94f61a9160048083019260209291908290030181865afa158015610da0573d6000803e3d6000fd5b505050506040513d601f19601f82011682018060405250810190610dc49190611da6565b9050806001600160a01b0316633ccfd60b6040518163ffffffff1660e01b8152600401600060405180830381600087803b158015610e0157600080fd5b505af1158015610e15573d6000803e3d6000fd5b50505050600360009054906101000a90046001600160a01b03166001600160a01b0316632053065f6040518163ffffffff1660e01b8152600401602060405180830381865afa158015610e6c573d6000803e3d6000fd5b505050506040513d601f19601f82011682018060405250810190610e909190611da6565b60005460055460405163a9059cbb60e01b81526001600160a01b039283166004820152602481019190915291169063a9059cbb906044016020604051808303816000875af1158015610ee6573d6000803e3d6000fd5b505050506040513d601f19601f82011682018060405250810190610f0a9190611e33565b610f565760405162461bcd60e51b815260206004820181905260248201527f7769746864726177207472616e7366657220696e6465786572206661696c65646044820152606401610475565b600554600154610f669190611e20565b600155506000600555565b60008111610fab5760405162461bcd60e51b815260206004820152600760248201526621746f6b656e7360c81b6044820152606401610475565b60035460408051632053065f60e01b815290516000926001600160a01b031691632053065f9160048083019260209291908290030181865afa158015610ff5573d6000803e3d6000fd5b505050506040513d601f19601f820116820180604052508101906110199190611da6565b600080546040516370a0823160e01b81526001600160a01b0391821660048201529293509091908316906370a0823190602401602060405180830381865afa158015611069573d6000803e3d6000fd5b505050506040513d601f19601f8201168201806040525081019061108d9190611dc3565b9050828110156110df5760405162461bcd60e51b815260206004820152601c60248201527f496e73756666696369656e74206163636f756e742062616c616e6365000000006044820152606401610475565b6000826001600160a01b031663095ea7b3600360009054906101000a90046001600160a01b03166001600160a01b0316634c94f61a6040518163ffffffff1660e01b8152600401602060405180830381865afa158015611143573d6000803e3d6000fd5b505050506040513d601f19601f820116820180604052508101906111679190611da6565b6040516001600160e01b031960e084901b1681526001600160a01b039091166004820152602481018790526044016020604051808303816000875af11580156111b4573d6000803e3d6000fd5b505050506040513d601f19601f820116820180604052508101906111d89190611e33565b905060018115151461121d5760405162461bcd60e51b815260206004820152600e60248201526d185c1c1c9bdd994819985a5b195960921b6044820152606401610475565b6000546040516323b872dd60e01b81526001600160a01b03918216600482015230602482015260448101869052908416906323b872dd906064016020604051808303816000875af1158015611276573d6000803e3d6000fd5b505050506040513d601f19601f8201168201806040525081019061129a9190611e33565b6112e65760405162461bcd60e51b815260206004820181905260248201527f7374616b696e673a20696e6465786572207472616e73666572206661696c65646044820152606401610475565b6003546040805163264a7b0d60e11b815290516000926001600160a01b031691634c94f61a9160048083019260209291908290030181865afa158015611330573d6000803e3d6000fd5b505050506040513d601f19601f820116820180604052508101906113549190611da6565b60405163534a7e1d60e11b8152600481018790529091506001600160a01b0382169063a694fc3a90602401600060405180830381600087803b15801561139957600080fd5b505af11580156113ad573d6000803e3d6000fd5b50505050846001546113bf9190611e50565b6001555050505050565b6003546040805163264a7b0d60e11b815290516000926001600160a01b031691634c94f61a9160048083019260209291908290030181865afa158015611413573d6000803e3d6000fd5b505050506040513d601f19601f820116820180604052508101906114379190611da6565b60405163558a729760e01b81526001600160a01b03858116600483015284151560248301529192509082169063558a729790604401600060405180830381600087803b15801561148657600080fd5b505af115801561149a573d6000803e3d6000fd5b50505050505050565b60035460408051632053065f60e01b815290516000926001600160a01b031691632053065f9160048083019260209291908290030181865afa1580156114ed573d6000803e3d6000fd5b505050506040513d601f19601f820116820180604052508101906115119190611da6565b905090565b600080600360009054906101000a90046001600160a01b03166001600160a01b0316632053065f6040518163ffffffff1660e01b8152600401602060405180830381865afa15801561156c573d6000803e3d6000fd5b505050506040513d601f19601f820116820180604052508101906115909190611da6565b6040516370a0823160e01b81523060048201529091506000906001600160a01b038316906370a0823190602401602060405180830381865afa1580156115da573d6000803e3d6000fd5b505050506040513d601f19601f820116820180604052508101906115fe9190611dc3565b905080156116bf57600081116116265760405162461bcd60e51b815260040161047590611ddc565b600354604080516316522e2d60e01b815290516000926001600160a01b0316916316522e2d9160048083019260209291908290030181865afa158015611670573d6000803e3d6000fd5b505050506040513d601f19601f820116820180604052508101906116949190611dc3565b905060006116a760646104ff8585611bed565b905060006116b58285611e20565b9695505050505050565b60009250505090565b6003546040805163264a7b0d60e11b815290516000926001600160a01b031691634c94f61a9160048083019260209291908290030181865afa158015611712573d6000803e3d6000fd5b505050506040513d601f19601f820116820180604052508101906117369190611da6565b60405163772495c360e01b81523060048201529091506001600160a01b0382169063772495c390602401600060405180830381600087803b15801561177a57600080fd5b505af115801561178e573d6000803e3d6000fd5b5050505050565b6001548111156117e75760405162461bcd60e51b815260206004820181905260248201527f776974686472617720616d6f756e74203e207374616b696e6720616d6f756e746044820152606401610475565b60035460408051632053065f60e01b815290516000926001600160a01b031691632053065f9160048083019260209291908290030181865afa158015611831573d6000803e3d6000fd5b505050506040513d601f19601f820116820180604052508101906118559190611da6565b90506000600360009054906101000a90046001600160a01b03166001600160a01b0316634c94f61a6040518163ffffffff1660e01b8152600401602060405180830381865afa1580156118ac573d6000803e3d6000fd5b505050506040513d601f19601f820116820180604052508101906118d09190611da6565b6040516305c2fbcf60e31b8152600481018590529091506001600160a01b03821690632e17de7890602401600060405180830381600087803b15801561191557600080fd5b505af1158015611929573d6000803e3d6000fd5b50505050806001600160a01b0316633ccfd60b6040518163ffffffff1660e01b8152600401600060405180830381600087803b15801561196857600080fd5b505af115801561197c573d6000803e3d6000fd5b505060005460405163a9059cbb60e01b81526001600160a01b03918216600482015260248101879052908516925063a9059cbb91506044016020604051808303816000875af11580156119d3573d6000803e3d6000fd5b505050506040513d601f19601f820116820180604052508101906119f79190611e33565b611a435760405162461bcd60e51b815260206004820181905260248201527f7769746864726177207472616e7366657220696e6465786572206661696c65646044820152606401610475565b82600154611a519190611e20565b600155505050565b600080600360009054906101000a90046001600160a01b03166001600160a01b0316632053065f6040518163ffffffff1660e01b8152600401602060405180830381865afa158015611aaf573d6000803e3d6000fd5b505050506040513d601f19601f82011682018060405250810190611ad39190611da6565b6040516370a0823160e01b81523060048201529091506000906001600160a01b038316906370a0823190602401602060405180830381865afa158015611b1d573d6000803e3d6000fd5b505050506040513d601f19601f82011682018060405250810190611b419190611dc3565b905060008111611b635760405162461bcd60e51b815260040161047590611ddc565b600354604080516316522e2d60e01b815290516000926001600160a01b0316916316522e2d9160048083019260209291908290030181865afa158015611bad573d6000803e3d6000fd5b505050506040513d601f19601f82011682018060405250810190611bd19190611dc3565b90506000611be460646104ff8585611bed565b95945050505050565b600082600003611bff57506000611c72565b6000611c0b8385611e63565b905082611c188583611e82565b14611c6f5760405162461bcd60e51b815260206004820152602160248201527f536166654d6174683a206d756c7469706c69636174696f6e206f766572666c6f6044820152607760f81b6064820152608401610475565b90505b92915050565b6000611c6f83836040518060400160405280601a81526020017f536166654d6174683a206469766973696f6e206279207a65726f00000000000081525060008183611cd65760405162461bcd60e51b81526004016104759190611ea4565b506000611be48486611e82565b600060208284031215611cf557600080fd5b5035919050565b6001600160a01b0381168114611d1157600080fd5b50565b60008060408385031215611d2757600080fd5b8235611d3281611cfc565b91506020830135611d4281611cfc565b809150509250929050565b8015158114611d1157600080fd5b60008060408385031215611d6e57600080fd5b8235611d7981611cfc565b91506020830135611d4281611d4d565b600060208284031215611d9b57600080fd5b8135611c6f81611cfc565b600060208284031215611db857600080fd5b8151611c6f81611cfc565b600060208284031215611dd557600080fd5b5051919050565b6020808252601490820152734e6f20696e636f6d6520746f207265636569766560601b604082015260600190565b634e487b7160e01b600052601160045260246000fd5b81810381811115611c7257611c72611e0a565b600060208284031215611e4557600080fd5b8151611c6f81611d4d565b80820180821115611c7257611c72611e0a565b6000816000190483118215151615611e7d57611e7d611e0a565b500290565b600082611e9f57634e487b7160e01b600052601260045260246000fd5b500490565b600060208083528351808285015260005b81811015611ed157858101830151858201604001528201611eb5565b506000604082860101526040601f19601f830116850101925050509291505056fea26469706673582212203261c8fa0e4ef07ae8d80f6e3ec2e3864998797adf0426b202675b4a86a3f86664736f6c63430008100033",
  "immutableReferences": {},
  "source": "// SPDX-License-Identifier: MIT\npragma solidity ^0.8.0;\n\nimport \"../lib/SafeMath.sol\";\nimport \"@openzeppelin/contracts/token/ERC20/IERC20.sol\";\nimport \"../config/Config.sol\";\nimport \"./IStaking.sol\";\nimport \"./IHamsterPool.sol\";\nimport \"./IStakingDistribution.sol\";\n\ncontract StakingDistribution is IStakingDistribution{\n    using SafeMath for uint256;\n    // indexer wallet address\n    address indexerWalletAddress;\n    //staking amount\n    uint256 stakingAmount;\n\n    //the graph staking address\n    address graphStakingAddress;\n\n    Config private _configContract;\n\n    IHamsterPool private _hamsterPoolContract;\n\n    event Log(string);\n\n    uint256 unStakeAmount;\n\n\n    function _init(address _configContractAddress,address _hamsterPoolAddress) public {\n        _configContract = Config(_configContractAddress);\n        _hamsterPoolContract = IHamsterPool(_hamsterPoolAddress);\n    }\n\n    //construction?\n    constructor (address _indexerWalletAddress) payable {\n        indexerWalletAddress = _indexerWalletAddress;\n    }\n\n\n    //save indexer staking address\n    function setIndexerAddress(address _indexerWalletAddress) public override{\n        indexerWalletAddress = _indexerWalletAddress;\n    }\n\n    //set staking amount\n    function setStakingAmount(uint256 _stakingAmount) public {\n        stakingAmount = _stakingAmount;\n    }\n\n    // get proxy staking address\n    function getProxyAddress() public view override returns (address) {\n        return address(this);\n    }\n\n    function getStakingAmount() public view override returns(uint256) {\n        return stakingAmount;\n    }\n\n    function getAddress() public view returns(address) {\n        return indexerWalletAddress;\n    }\n\n    // get proxy contract address balance\n    function getBalance() public view override returns(uint256) {\n        address grtAddress = _configContract.getGrtTokenAddress();\n        return IERC20(grtAddress).balanceOf(address(this));\n    }\n\n    //Deposit GRT to this contract address and staking\n    function staking(uint256 _stakingAmount) public override {\n        emit Log(\"call method\");\n        require(_stakingAmount > 0,\"!tokens\");\n        address grtAddress = _configContract.getGrtTokenAddress();\n        uint256 balance = IERC20(grtAddress).balanceOf(indexerWalletAddress);\n        require(balance >= _stakingAmount,\"Insufficient account balance\");\n        //Transfer the GRT of indexer wallet to the address of this contract\n        require(IERC20(grtAddress).transferFrom(indexerWalletAddress,address(this),_stakingAmount),\"staking: indexer transfer failed\");\n        bool approve = IERC20(grtAddress).approve(_configContract.getGraphStakingAddress(),_stakingAmount);\n        require(approve == true,\"approve failed\");\n        IStaking graphStaking = IStaking(_configContract.getGraphStakingAddress());\n        graphStaking.stake(_stakingAmount);\n        stakingAmount = _stakingAmount;\n        graphStaking.setOperator(indexerWalletAddress,true);\n        graphStaking.setRewardsDestination(address(this));\n    }\n\n    function rePledge(uint256 _stakingAmount) public override {\n        require(_stakingAmount > 0,\"!tokens\");\n        address grtAddress = _configContract.getGrtTokenAddress();\n        uint256 balance = IERC20(grtAddress).balanceOf(indexerWalletAddress);\n        require(balance >= _stakingAmount,\"Insufficient account balance\");\n        bool approve = IERC20(grtAddress).approve(_configContract.getGraphStakingAddress(),_stakingAmount);\n        require(approve == true,\"approve failed\");\n        //Transfer the GRT of indexer wallet to the address of this contract\n        require(IERC20(grtAddress).transferFrom(indexerWalletAddress,address(this),_stakingAmount),\"staking: indexer transfer failed\");\n        IStaking graphStaking = IStaking(_configContract.getGraphStakingAddress());\n        graphStaking.stake(_stakingAmount);\n        stakingAmount = stakingAmount + _stakingAmount;\n    }\n\n\n\n    //Receive income\n    function withdrawIncome() public override {\n         // IStaking graphStaking = IStaking(_configContract.getGraphStakingAddress());\n        // close allocation\n        // graphStaking.closeAllocation(_allocationID,_poi);\n        address grtAddress = _configContract.getGrtTokenAddress();\n        uint256 amounts = IERC20(grtAddress).balanceOf(address(this));\n        require(amounts > 0,\"No income to receive\");\n        uint256 proportion = _configContract.getAllocationProportion();\n        uint256 poolAmount = amounts.mul(proportion).div(100);\n        uint256 income = amounts - poolAmount;\n        require(IERC20(grtAddress).transfer(indexerWalletAddress,income));\n        IERC20(grtAddress).approve(_hamsterPoolContract.getPoolAddress(),poolAmount);\n        //transfer to hamster pool\n        _hamsterPoolContract.distributionGrt(address(this),poolAmount);\n    }\n\n    //Withdrawal of pledge\n    function retrieveStaking(uint256 _tokens) public override {\n        require(_tokens <= stakingAmount,\"withdraw amount > staking amount\");\n        address grtAddress = _configContract.getGrtTokenAddress();\n        IStaking graphStaking = IStaking(_configContract.getGraphStakingAddress());\n        graphStaking.unstake(_tokens);\n        graphStaking.withdraw();\n        require(IERC20(grtAddress).transfer(indexerWalletAddress,_tokens),\"withdraw transfer indexer failed\");\n        stakingAmount = stakingAmount - _tokens;\n    }\n\n    //set operator\n    function setOperator(address _operator, bool _allowed) public override {\n        IStaking graphStaking = IStaking(_configContract.getGraphStakingAddress());\n        graphStaking.setOperator(_operator,_allowed);\n    }\n\n    function setRewardsDestination() public {\n        IStaking graphStaking = IStaking(_configContract.getGraphStakingAddress());\n        graphStaking.setRewardsDestination(address(this));\n    }\n\n    //Gain income\n    function gainIncome() public view override returns(uint256) {\n        address grtAddress = _configContract.getGrtTokenAddress();\n        uint256 amounts = IERC20(grtAddress).balanceOf(address(this));\n        if (amounts > 0) {\n            require(amounts > 0,\"No income to receive\");\n            uint256 proportion = _configContract.getAllocationProportion();\n            uint256 poolAmount = amounts.mul(proportion).div(100);\n            uint256 incomeBalance = amounts - poolAmount;\n            return incomeBalance;\n        }\n        return 0;\n    }\n\n    function getGrtAddress() public view returns(address) {\n        return _configContract.getGrtTokenAddress();\n    }\n\n    function getIncome() public view returns(uint256) {\n        address grtAddress = _configContract.getGrtTokenAddress();\n        uint256 amounts = IERC20(grtAddress).balanceOf(address(this));\n        require(amounts > 0,\"No income to receive\");\n        uint256 proportion = _configContract.getAllocationProportion();\n        uint256 poolAmount = amounts.mul(proportion).div(100);\n        return poolAmount;\n    }\n\n    //unstake tokens\n    function unstake(uint256 _tokens) public override {\n        require((unStakeAmount + _tokens) <= stakingAmount,\"withdraw amount > staking amount\");\n        IStaking graphStaking = IStaking(_configContract.getGraphStakingAddress());\n        graphStaking.unstake(_tokens);\n        unStakeAmount = unStakeAmount + _tokens;\n    }\n\n    //get unstaking amount\n    function getUnStakingAmount() public view returns(uint256) {\n        return unStakeAmount;\n    }\n    // withdraw stake GRT\n    function withdraw() public override {\n        IStaking graphStaking = IStaking(_configContract.getGraphStakingAddress());\n        graphStaking.withdraw();\n        require(IERC20(_configContract.getGrtTokenAddress()).transfer(indexerWalletAddress,unStakeAmount),\"withdraw transfer indexer failed\");\n        stakingAmount = stakingAmount - unStakeAmount;\n        unStakeAmount = 0;\n    }\n\n}\n",
  "sourcePath": "/home/sunjianguo/GolandProjects/hamster-contracts/contracts/thegraph/StakingDistribution.sol",
  "compiler": {
    "name": "solc",
    "version": "0.8.16+commit.07a7930e.Emscripten.clang"
  },
  "schemaVersion": "3.4.8",
  "updatedAt": "2022-08-12T09:29:39.826Z",
  "devdoc": {
    "kind": "dev",
    "methods": {},
    "version": 1
  },
  "userdoc": {
    "kind": "user",
    "methods": {},
    "version": 1
  }
}