{
  "contractName": "Staking",
  "abi": [
    {
      "inputs": [
        {
          "internalType": "address",
          "name": "_grtAddress",
          "type": "address"
        }
      ],
      "stateMutability": "nonpayable",
      "type": "constructor"
    },
    {
      "anonymous": false,
      "inputs": [
        {
          "indexed": false,
          "internalType": "string",
          "name": "",
          "type": "string"
        }
      ],
      "name": "Log",
      "type": "event"
    },
    {
      "anonymous": false,
      "inputs": [
        {
          "indexed": false,
          "internalType": "uint256",
          "name": "",
          "type": "uint256"
        }
      ],
      "name": "Log",
      "type": "event"
    },
    {
      "anonymous": false,
      "inputs": [
        {
          "indexed": false,
          "internalType": "address",
          "name": "",
          "type": "address"
        }
      ],
      "name": "Log",
      "type": "event"
    },
    {
      "anonymous": false,
      "inputs": [
        {
          "indexed": false,
          "internalType": "bool",
          "name": "",
          "type": "bool"
        }
      ],
      "name": "Log",
      "type": "event"
    },
    {
      "inputs": [
        {
          "internalType": "uint256",
          "name": "_tokens",
          "type": "uint256"
        }
      ],
      "name": "stake",
      "outputs": [],
      "stateMutability": "nonpayable",
      "type": "function"
    },
    {
      "inputs": [],
      "name": "withdraw",
      "outputs": [],
      "stateMutability": "nonpayable",
      "type": "function"
    },
    {
      "inputs": [
        {
          "internalType": "uint256",
          "name": "_tokens",
          "type": "uint256"
        }
      ],
      "name": "unstake",
      "outputs": [],
      "stateMutability": "nonpayable",
      "type": "function"
    },
    {
      "inputs": [
        {
          "internalType": "address",
          "name": "_operator",
          "type": "address"
        },
        {
          "internalType": "bool",
          "name": "_allowed",
          "type": "bool"
        }
      ],
      "name": "setOperator",
      "outputs": [],
      "stateMutability": "nonpayable",
      "type": "function"
    },
    {
      "inputs": [
        {
          "internalType": "address",
          "name": "_destination",
          "type": "address"
        }
      ],
      "name": "setRewardsDestination",
      "outputs": [],
      "stateMutability": "nonpayable",
      "type": "function"
    }
  ],
  "bytecode": "0x608060405234801561001057600080fd5b5060405161077238038061077283398101604081905261002f91610054565b600080546001600160a01b0319166001600160a01b0392909216919091179055610084565b60006020828403121561006657600080fd5b81516001600160a01b038116811461007d57600080fd5b9392505050565b6106df806100936000396000f3fe608060405234801561001057600080fd5b50600436106100575760003560e01c80632e17de781461005c5780633ccfd60b14610071578063558a729714610079578063772495c31461008c578063a694fc3a1461009f575b600080fd5b61006f61006a36600461058e565b6100b2565b005b61006f610129565b61006f6100873660046105d4565b6101c5565b61006f61009a36600461060b565b61027e565b61006f6100ad36600461058e565b610303565b60008051602061068a8339815191526040516100ea906020808252600890820152673ab739ba30b5b29d60c11b604082015260600190565b60405180910390a16040518181527f909c57d5c6ac08245cf2a6de3900e2b868513fa59099b92b27d8db823d92df9c906020015b60405180910390a150565b33600081815260016020526040808220549154905163a9059cbb60e01b815260048101939093526024830182905290916001600160a01b039091169063a9059cbb906044016020604051808303816000875af115801561018d573d6000803e3d6000fd5b505050506040513d601f19601f820116820180604052508101906101b1919061062d565b505033600090815260016020526040812055565b60008051602061068a833981519152604051610201906020808252600c908201526b39b2ba1037b832b930ba329d60a11b604082015260600190565b60405180910390a16040516001600160a01b03831681527fb8a00d6d8ca1be30bfec34d8f97e55f0f0fd9eeb7fb46e030516363d4cfe1ad69060200160405180910390a160405181151581527f47f8c0417b311dcdb6348ff8ce66cad6024dedecfc28f969dd137de9c735012a9060200160405180910390a15050565b60008051602061068a8339815191526040516102c29060208082526014908201527339b2ba103932bbb0b932399030b2323932b9b99d60611b604082015260600190565b60405180910390a16040516001600160a01b03821681527fb8a00d6d8ca1be30bfec34d8f97e55f0f0fd9eeb7fb46e030516363d4cfe1ad69060200161011e565b60008051602061068a833981519152604051610341906020808252600e908201526d7374616b696e67206265666f726560901b604082015260600190565b60405180910390a1600080546040516370a0823160e01b81523060048201526001600160a01b03909116906370a0823190602401602060405180830381865afa158015610392573d6000803e3d6000fd5b505050506040513d601f19601f820116820180604052508101906103b6919061064a565b90507f909c57d5c6ac08245cf2a6de3900e2b868513fa59099b92b27d8db823d92df9c816040516103e991815260200190565b60405180910390a16000546040516323b872dd60e01b8152336004820152306024820152604481018490526001600160a01b03909116906323b872dd906064016020604051808303816000875af1158015610448573d6000803e3d6000fd5b505050506040513d601f19601f8201168201806040525081019061046c919061062d565b5033600090815260016020526040902054610488908390610663565b3360009081526001602052604090819020919091555160008051602061068a833981519152906104d9906020808252600d908201526c39ba30b5b4b7339030b33a32b960991b604082015260600190565b60405180910390a1600080546040516370a0823160e01b81523060048201526001600160a01b03909116906370a0823190602401602060405180830381865afa15801561052a573d6000803e3d6000fd5b505050506040513d601f19601f8201168201806040525081019061054e919061064a565b90507f909c57d5c6ac08245cf2a6de3900e2b868513fa59099b92b27d8db823d92df9c8160405161058191815260200190565b60405180910390a1505050565b6000602082840312156105a057600080fd5b5035919050565b80356001600160a01b03811681146105be57600080fd5b919050565b80151581146105d157600080fd5b50565b600080604083850312156105e757600080fd5b6105f0836105a7565b91506020830135610600816105c3565b809150509250929050565b60006020828403121561061d57600080fd5b610626826105a7565b9392505050565b60006020828403121561063f57600080fd5b8151610626816105c3565b60006020828403121561065c57600080fd5b5051919050565b6000821982111561068457634e487b7160e01b600052601160045260246000fd5b50019056fecf34ef537ac33ee1ac626ca1587a0a7e8e51561e5514f8cb36afa1c5102b3baba26469706673582212208fe98bb4eb309d8d155caf8055a64a340eb3744e79fcea4eaccbf3d18e8e15da64736f6c634300080f0033",
  "immutableReferences": {},
  "source": "// SPDX-License-Identifier: MIT\npragma solidity ^0.8.0;\nimport \"../thegraph/IStaking.sol\";\nimport \"@openzeppelin/contracts/token/ERC20/IERC20.sol\";\n\ncontract Staking is IStaking{\n\n    address grtToken;\n\n    mapping(address => uint256) stakingInfo;\n\n    event Log(string);\n    event Log(uint256);\n    event Log(address);\n    event Log(bool);\n\n    constructor (address _grtAddress) {\n        grtToken = _grtAddress;\n    }\n\n    function stake(uint256 _tokens) external override {\n        emit Log(\"staking before\");\n        uint256 amount = IERC20(grtToken).balanceOf(address(this));\n        emit Log(amount);\n        IERC20(grtToken).transferFrom(msg.sender,address(this),_tokens);\n        stakingInfo[msg.sender] = stakingInfo[msg.sender] + _tokens;\n        emit Log(\"staking after\");\n        uint256 amountBack = IERC20(grtToken).balanceOf(address(this));\n        emit Log(amountBack);\n    }\n\n    function withdraw() external override  {\n        uint256 withdrawToken = stakingInfo[msg.sender];\n        IERC20(grtToken).transfer(msg.sender,withdrawToken);\n        stakingInfo[msg.sender] = 0;\n    }\n\n    function unstake(uint256 _tokens) external override  {\n        emit Log(\"unstake:\");\n        emit Log(_tokens);\n    }\n\n\n    function setOperator(address _operator, bool _allowed) external override {\n        emit Log(\"set operate:\");\n        emit Log(_operator);\n        emit Log(_allowed);\n    }\n\n    function setRewardsDestination(address _destination) external override {\n        emit Log(\"set rewards address:\");\n        emit Log(_destination);\n    }\n}\n",
  "sourcePath": "/home/sunjianguo/GolandProjects/hamster-contracts/contracts/mock/Staking.sol",
  "compiler": {
    "name": "solc",
    "version": "0.8.15+commit.e14f2714.Emscripten.clang"
  },
  "schemaVersion": "3.4.8",
  "updatedAt": "2022-07-29T06:40:11.356Z",
  "devdoc": {
    "kind": "dev",
    "methods": {},
    "version": 1
  },
  "userdoc": {
    "kind": "user",
    "methods": {},
    "version": 1
  }
}